:100000000C94DA030C9402040C9402040C94020481
:100010000C9402040C9402040C9402040C94020448
:100020000C9402040C9402040C944D060C94BF062C
:100030000C9402040C9402040C9402040C94020428
:100040000C9402040C9402040C9402040C94020418
:100050000C9402040C9402040C9402040C949D0968
:100060000C9402040C9402040C9402040C940204F8
:100070000C9402040C9402040C9402040C940204E8
:100080000C94950A0C9402040C9402040C9402043F
:100090000C9402040C9402040C9402040C940204C8
:1000A0000C9402040C9402040C940204F0F89C8E4C
:1000B0008783878E9CF8F00000FEFF030303030391
:1000C000070EFCF80000FEFF0303030303070EFC0A
:1000D000F80000FFFF00000000000000FFFF00002C
:1000E000FEFF8383838383C7EE7C380000F8FC0E19
:1000F00007030303070EFCF800003F7FE0C0808089
:10010000C0E07F3FFFFF01010101010101FFFF008E
:1001100000FFFF0C0C0C0C1C3E77E3C100007FFFBE
:10012000C0C0C0C0C0E0703F1F00001F3F70E0C0F3
:10013000C0C0E0703F1F00007FFFC1C1C1C1C1E36B
:10014000773E1C00001F3F70E0C0C0C0E0703F1F42
:10015000000000000001FFFF01000000D5F08D1439
:10016000A1C881CFD9F1AF2000101000000000001D
:10017000000000C0C020201010101010102020C05F
:10018000C0000000000000000000000000000000AF
:10019000000000010102020404040404040202013C
:1001A00001000000000000000000000000C0C0309E
:1001B00030080804040404020202020202040404D7
:1001C0000408083030C0C000000000000001010633
:1001D00006080810101010202020202020101010D9
:1001E0001008080606010100000000E0E0181804ED
:1001F00004020202020101010101010101010102E7
:1002000002020204041818E0E0000003030C0C10C2
:1002100010202020204040404040404040404020AE
:1002200020202010100C0C0303000008081B1104F0
:10023000111B000000080B0002020201000904006B
:100240000001020200000524001001052401010143
:10025000042402060524060001070581031000405E
:1002600009040100020A0000000705020240000024
:10027000070583024000000403090412010002EF95
:1002800002014041233680000101020301417264F2
:1002900075696E6F204C4C430041726475696E6FD6
:1002A000204C656F6E6172646F00010204081020BB
:1002B000408000000000003E5B4F5B3E3E6B4F6B9A
:1002C0003E1C3E7C3E1C183C7E3C181C577D571C37
:1002D0001C5E7F5E1C00183C1800FFE7C3E7FF00B0
:1002E00018241800FFE7DBE7FF30483A060E2629FE
:1002F000792926407F050507407F05253F5A3CE7C1
:100300003C5A7F3E1C1C08081C1C3E7F14227F2286
:10031000145F5F005F5F06097F017F006689956A51
:10032000606060606094A2FFA29408047E040810DC
:10033000207E201008082A1C08081C2A08081E1005
:100340001010100C1E0C1E0C30383E3830060E3EBD
:100350000E06000000000000005F0000000700071C
:1003600000147F147F14242A7F2A12231308646246
:1003700036495620500008070300001C22410000A7
:1003800041221C002A1C7F1C2A08083E0808008005
:10039000703000080808080800006060002010089D
:1003A00004023E5149453E00427F4000724949499E
:1003B000462141494D331814127F102745454539D0
:1003C0003C4A4949314121110907364949493646D4
:1003D0004949291E000014000000403400000008B4
:1003E0001422411414141414004122140802015957
:1003F00009063E415D594E7C1211127C7F494949E4
:10040000363E414141227F4141413E7F4949494178
:100410007F090909013E414151737F0808087F00A7
:10042000417F41002040413F017F081422417F402D
:100430004040407F021C027F7F0408107F3E414104
:10044000413E7F090909063E4151215E7F09192974
:1004500046264949493203017F01033F4040403F5E
:100460001F2040201F3F4038403F6314081463039F
:10047000047804036159494D43007F41414102041E
:10048000081020004141417F040201020440404025
:100490004040000307080020545478407F2844441B
:1004A000383844444428384444287F385454541835
:1004B00000087E090218A4A49C787F080404780030
:1004C000447D40002040403D007F10284400004112
:1004D0007F40007C047804787C0804047838444425
:1004E0004438FC1824241818242418FC7C0804041C
:1004F00008485454542404043F44243C4040207C85
:100500001C2040201C3C4030403C44281028444CD7
:100510009090907C4464544C4400083641000000A4
:10052000770000004136080002010204023C262345
:10053000263C1EA1A161123A4040207A38545455FD
:1005400059215555794121545478412155547840C9
:1005500020545579400C1E5272123955555559394F
:100560005454545939555454580000457C410002A4
:10057000457D420001457C40F0292429F0F02825E2
:1005800028F07C545545002054547C547C0A097F43
:100590004932494949323248484832324A4848305B
:1005A0003A4141217A3A42402078009DA0A07D390D
:1005B000444444393D4040403D3C24FF2424487E8F
:1005C0004943662B2FFC2F2BFF0929F620C0887E7C
:1005D000090320545479410000447D413048484A81
:1005E00032384040227A007A0A0A727D0D19317D34
:1005F0002629292F28262929292630484D40203808
:100600000808080808080808382F10C8ACBA2F10C6
:100610002834FA00007B000008142A142222142A2D
:1006200014089500220095AA005500AAAA55AA55BB
:10063000AA000000FF00101010FF00141414FF00A7
:100640001010FF00FF1010F010F0141414FC001430
:1006500014F700FF0000FF00FF1414F404FC14144E
:1006600017101F10101F101F1414141F001010104B
:10067000F0000000001F101010101F10101010F0DC
:1006800010000000FF101010101010101010FF10BC
:10069000000000FF140000FF00FF00001F10170003
:1006A00000FC04F414141710171414F404F40000DC
:1006B000FF00F714141414141414F700F71414148E
:1006C000171410101F101F141414F4141010F0102D
:1006D000F000001F101F0000001F14000000FC1499
:1006E0000000F010F01010FF10FF141414FF14108D
:1006F00010101F00000000F010FFFFFFFFFFF0F0E0
:10070000F0F0F0FFFFFF0000000000FFFF0F0F0FF1
:100710000F0F38444438447C2A2A3E147E020206D5
:1007200006027E027E0263554941633844443C041C
:10073000407E201E2006027E020299A5E7A5991C94
:100740002A492A1C4C7201724C304A4D4D303048B7
:10075000784830BC625A463D3E494949007E010115
:10076000017E2A2A2A2A2A44445F444440514A44AA
:100770004040444A51400000FF0103E080FF000078
:1007800008086B6B083612362436060F090F060070
:100790000018180000001010003040FF0101001F79
:1007A00001011E00191D1712003C3C3C3C000000DA
:1007B0000000931411241FBECFEFDAE0DEBFCDBFDF
:1007C00011E0A0E0B1E0E6EFFBE202C005900D927F
:1007D000A236B107D9F726E0A2E6B1E001C01D922A
:1007E000A433B207E1F713E0CAEDD3E004C02197C8
:1007F000FE010E94EE15C93DD107C9F70E94BD0E4A
:100800000C94F9150C9400009C01240F311D121654
:10081000130674F5803891055CF5FC0197FF02C062
:10082000E0E0F0E02138310514F020E830E02E1B44
:10083000AB014770552781E001C0880F4A95EAF760
:1008400077FF02C0695F7F4F93E0759567959A9532
:10085000E1F77695762F662777956795E60FF71F70
:10086000EE55FE4F215020F09081982B9193FACFB6
:100870000895FC018091A101811103C08FEF9FEFCA
:1008800008959FB7F89482E08093E9002091F200E8
:1008900030E01216130614F421E030E02115310582
:1008A00059F0289884E68093A0018091F10080831C
:1008B0008091F200882319F09FBFC90108958BE64B
:1008C0008093E800F9CF2FB7F89483E08093E90094
:1008D0009091E800892F807295FF04C09091F200FA
:1008E00080E4891B2FBF08958091CE0581110DC032
:1008F00082E08093CA0584E08093CB051092CD05F9
:100900001092CC0581E08093CE058AEC95E00895A5
:10091000CF93DF931F92CDB7DEB76983DC01ED91F2
:10092000FC910280F381E02D41E050E0BE016F5F59
:100930007F4F09950F90DF91CF91089583E08093C9
:10094000E9008091F200882319F08AE38093E8009F
:1009500008950E94630490E00895CF93DF931F925F
:10096000CDB7DEB7FC018485958597FD05C02FEFD7
:100970003FEF358724870BC0CE0101960E943904D2
:10098000019719F4898190E002C08FEF9FEF0F90DB
:10099000DF91CF9108950F931F93CF93DF931F9211
:1009A000CDB7DEB78C01FC018485958597FF0EC01D
:1009B000CE0101960E943904019719F4298130E093
:1009C00002C02FEF3FEFF80135872487F8018485B7
:1009D00095850F90DF91CF911F910F910895FC01A4
:1009E0008485958597FD0BC09FB7F89482E080932E
:1009F000E9008091F2009FBF90E0019608959FB7B3
:100A0000F89482E08093E9008091F2009FBF90E02B
:100A100008958F929F92AF92BF92CF92DF92EF9202
:100A2000FF920F931F93CF93DF935C016B017A01C9
:100A300080911701882309F45BC08091A10188236C
:100A400009F456C080919F0180FF05C08091E000AD
:100A500082608093E000E70110E00AEF83E0882ED7
:100A60009AE3992E2097D9F10E94630481110AC05C
:100A7000015009F43DC061E070E080E090E00E9428
:100A80006309F0CF282F30E0C217D3070CF48C2F66
:100A90004FB7F8948092E9009091E80095FF1DC04F
:100AA000282F30E0C21BD30BF601982F915020F075
:100AB00081918093F100FACFC20ED31E112319F059
:100AC0009092E80009C08091E80085FD06C09092F0
:100AD000E80011E0209709F010E04FBFC3CF1111DB
:100AE000C3CF5D9884E68093C9051E141F0444F0AB
:100AF00081E090E0F5019383828380E090E001C083
:100B0000C701DF91CF911F910F91FF90EF90DF9080
:100B1000CF90BF90AF909F908F900895DF92EF920B
:100B2000FF920F931F93CF93DF93D82E8A017B01FF
:100B3000E40EF51EEB01CE15DF0571F0D7FE03C004
:100B4000FE01849101C088810E94820E219681114C
:100B5000F2CF8FEF9FEF01C0C801DF91CF911F91BE
:100B60000F91FF90EF90DF9008950F931F93CF9315
:100B7000DF931F92CDB7DEB782E0898342E450E075
:100B800065E372E080E80E948E050E947404DC0137
:100B900012960D911C9113970115110569F0D8015A
:100BA000ED91FC910280F381E02DBE016F5F7F4FDC
:100BB000C801099597FF07C089810F90DF91CF91F8
:100BC0001F910F910895F80100851185E5CFE2EAA4
:100BD000F1E0A0E0B8E000800EBC8111012C11977B
:100BE000A0FDFDCF0192B9F70DB40895EF92FF92E9
:100BF0000F931F93CF93DF937C018B01040F111D83
:100C0000EB0177FF0EC0C0E0D0E00BC0C217D307E6
:100C10007CF421E0AE01B70186EB95E00E94EB0C7D
:100C200021969801013411058CF320E430E0EECFD9
:100C3000DF91CF911F910F91FF90EF900895EF9268
:100C4000FF920F931F93CF93DF93EC018B01E42E60
:100C5000F22E6034710510F40E940404B8016F0D87
:100C6000711D615071096034710520F44E2DCE0163
:100C70000E9404044F2DB801CE010E94F605CE015A
:100C80008E0D911D4F2DB8010197DF91CF911F91CE
:100C90000F91FF90EF900C94F6051F920F920FB6F4
:100CA0000F9211248F939F938091E1009091E10026
:100CB000937F9093E10083FF0FC01092E90091E0D1
:100CC0009093EB001092EC0092E39093ED00109261
:100CD000A10198E09093F00082FF20C093E09093F0
:100CE000E9009091F200992319F09AE39093E800BB
:100CF0009091C905992339F09091C905915090932D
:100D0000C905992389F19091A001992339F0909117
:100D1000A00191509093A001992341F184FF10C04C
:100D20008091E2008E7E81608093E2008091E100FC
:100D30008F7E8093E10080919F018E7E806111C043
:100D400080FF16C08091E2008E7E80618093E20079
:100D50008091E1008E7E8093E10080919F018E7EE4
:100D6000816080939F0104C05D9ACDCF289AD6CF31
:100D70009F918F910F900FBE0F901F9018951F920B
:100D80000F920FB60F921124CF92DF92EF92FF9243
:100D90000F931F932F933F934F935F936F937F9383
:100DA0008F939F93AF93BF93EF93FF93CF93DF9373
:100DB000CDB7DEB76C97DEBFCDBF1092E900809152
:100DC000E80083FFEDC168E0CE0145960E94B00EB9
:100DD00082EF8093E8008D8987FF05C09091E8003D
:100DE00090FFFCCF03C09EEF9093E800982F907681
:100DF00009F0C6C09E892F89188D91110CC08038CA
:100E000029F480919E018093F10002C01092F100BC
:100E10001092F10048C1422F50E0512B913051F413
:100E2000811141C14130510509F03DC180919E01C0
:100E30008D7F0BC0933061F4811135C14130510574
:100E400009F031C180919E01826080939E012BC187
:100E5000953041F48091E80080FFFCCF206820931A
:100E6000E30021C1963009F05FC0EB8CFC8C10923E
:100E7000E90010929C0110929B01123091F51092A2
:100E80009A01109299010E94B50599E0BE016F5F29
:100E90007F4FDB01E92F1D92EA95E9F799831A83C9
:100EA00091E09E8390EA98879AEF998720919B0121
:100EB00030919C01275F3F4F3C832B838D831092A1
:100EC000E90010929C0110929B01F0929A01E0922D
:100ED000990149E050E080E00E948E050E94B5052E
:100EE000E2C0F0929A01E09299010E947404DC0140
:100EF0001296ED90FC901397E114F10409F4C0C030
:100F0000D701ED91FC910480F581E02DBE016B5E6F
:100F10007F4FC7010995009719F00CF0C4C0C7C0F6
:100F2000F701E084F184E8CF973009F4C0C098302D
:100F300021F481E08093F100B6C0993009F0B3C08C
:100F4000837009F0B4C0E5E3F1E081E021E036E32D
:100F50009081992361F08093E9002093EB009191B7
:100F60009093EC003093ED008F5F873089F78EE728
:100F70008093EA001092EA008F898093A10193C0C8
:100F80008B8D9C8D1092E90010929C0110929B0118
:100F900090939A0180939901898D811156C08E8911
:100FA0009D89913A59F4813209F081C047E050E0BF
:100FB00060E171E080E00E948E0575C0913209F019
:100FC00076C0833289F4888D90E0982F88272F8906
:100FD000822BA0E0B0E080930C0190930D01A093D0
:100FE0000E01B0930F015FC0803269F48091E80078
:100FF00082FFFCCF67E080E191E00E94B00E8BEFB2
:101000008093E80006C0823209F04DC08F8980933A
:10101000170180919D01882319F0EEEFFAE002C0DC
:10102000E0E0F8E08091100190911101A09112018F
:10103000B0911301803B9440A105B10509F07BC03C
:101040008091170180FF93C076C00E947404DC0178
:1010500012960D911C9113970115110541F1D801BC
:10106000ED91FC910190F081E02DBE016B5E7F4F10
:10107000C8010995811117C0F80100851185ECCFD1
:10108000113009F44EC0133091F48F89882309F48C
:1010900045C0823081F440E860E189E992E00E9435
:1010A0005614882321F08EEF8093E80079C081E206
:1010B0008093EB0075C0813029F440E86BE08DE847
:1010C00092E0EDCF833099F70E947404DC01129610
:1010D000ED90FC9013978E010F5F1F4F6801E11494
:1010E000F10479F0D701ED91FC910680F781E02DB4
:1010F000B801C7010995080F111DF701E084F184BB
:10110000EECFD8011C92F60101900020E9F731974B
:10111000BF016C197D0940E0C601C1CF67E772E0ED
:1011200002C06BE772E06115710509F2FB014491A1
:1011300050E080E840CF0FB6F894A8958091600009
:10114000886180936000109260000FBEA895EE3F0A
:101150002AE0F20739F08091FE0A9091FF0A91830C
:101160008083A1CF1092FF0A1092FE0A9CCFEE3F1F
:101170008AE0F80731F0808191819093FF0A809393
:10118000FE0A87E797E7918380839BE088E10FB6AB
:10119000F894A895809360000FBE9093600083CF71
:1011A0006C960FB6F894DEBF0FBECDBFDF91CF9126
:1011B000FF91EF91BF91AF919F918F917F916F912F
:1011C0005F914F913F912F911F910F91FF90EF9061
:1011D000DF90CF900F900FBE0F901F901895CF9279
:1011E000DF92EF92FF920F931F93CF93DF936C01E7
:1011F0007A018B01C0E0D0E0CE15DF0589F0D8017F
:101200006D918D01D601ED91FC910190F081E02D61
:10121000C6010995892B11F47E0102C02196ECCFFD
:10122000C701DF91CF911F910F91FF90EF90DF9059
:10123000CF90089580916B01E0916901F0916A016E
:10124000882349F0CF01029690936A018093690147
:10125000859194910895CF01029690936A018093AD
:1012600069018081918108958091620108950895B6
:10127000089580E090E008950E94F4153FB7F89437
:101280008091300690913106A0913206B0913306DC
:1012900026B5A89B05C02F3F19F00196A11DB11DD1
:1012A0003FBFBA2FA92F982F8827820F911DA11D0C
:1012B000B11DBC01CD0142E0660F771F881F991F49
:1012C0004A95D1F708958F929F92AF92BF92CF9295
:1012D000DF92EF92FF926B017C010E943E094B016D
:1012E0005C01C114D104E104F104F1F00E943E0953
:1012F000DC01CB0188199909AA09BB09883E9340F2
:10130000A105B10570F321E0C21AD108E108F10886
:1013100088EE880E83E0981EA11CB11CC114D10474
:10132000E104F10419F7DDCFFF90EF90DF90CF904B
:10133000BF90AF909F908F9008951F920F920FB61D
:101340000F9211242F933F938F939F93AF93BF934B
:101350008091630190916401A0916501B091660153
:1013600030912F0623E0230F2D3720F40196A11D85
:10137000B11D05C026E8230F0296A11DB11D2093C3
:101380002F068093630190936401A0936501B0934D
:1013900066018091300690913106A0913206B0919D
:1013A00033060196A11DB11D80933006909331063E
:1013B000A0933206B0933306BF91AF919F918F9166
:1013C0003F912F910F900FBE0F901F901895CF92C5
:1013D000DF92EF92FF920F931F93CF93DF930E94C0
:1013E0001A09811520E8920761F4809171008D7FC0
:1013F00080937100109291004698479810922806A9
:101400008BC021E020932806813020E8920751F418
:10141000809167019091680190936A0180936901BE
:101420000E941A0997FD05C020912706222309F47E
:101430003FC02091260621113BC021E020932906C0
:10144000EC01DF77209769F481E080932A064698C3
:101450003FE9C32E3FE0D32EE12CF12CCAEFD0E0C0
:1014600014C08E0120E030E060E472E48FE090E090
:10147000A90198010E948B1569017A0181E0C81ABF
:10148000D108E108F10810922A06E091B005F09128
:10149000B1050995811103C081E080932A068091EE
:1014A00029068823B9F180912A06811133C003C02F
:1014B00010922906C5CF46992DC0479A0E941A0955
:1014C000009771F09C01DE010E94DF15DC01CB0169
:1014D00029E0B595A795979587952A95D1F703C0EB
:1014E0008FEF9FEFDC01109290002AE02093910093
:1014F000D0929900C092980080932B0690932C066E
:10150000A0932D06B0932E06809171008260809387
:10151000710002C04798D2CFDF91CF911F910F91F8
:10152000FF90EF90DF90CF9008951F920F920FB62B
:101530000F9211242F933F934F935F936F937F9359
:101540008F939F93AF93BF93EF93FF9380912B065D
:1015500090912C06A0912D06B0912E06892B8A2BF6
:101560008B2B81F180912A0681110BC098B180E408
:10157000892788B980912906882319F088B1805875
:1015800088B980912B0690912C06A0912D06B091E0
:101590002E06181619061A061B06B4F480912B069F
:1015A00090912C06A0912D06B0912E060197A109CD
:1015B000B10980932B0690932C06A0932D06B0932F
:1015C0002E0602C00E94E709FF91EF91BF91AF91F3
:1015D0009F918F917F916F915F914F913F912F914B
:1015E0000F900FBE0F901F9018954F925F927F92B1
:1015F0008F929F92AF92BF92CF92DF92EF92FF9223
:101600000F931F93CF93DF9300D000D0CDB7DEB7F9
:1016100029011C2DA02EB12C9C012A0D3B1D121658
:1016200013060CF0B3C1803891050CF0AFC1FB017B
:10163000EE0DF11D1E161F060CF0A8C160347105D9
:101640000CF0A4C14115510509F4A0C1E62FE770C3
:10165000FE2EFB0177FD3796A3E0F595E795AA9559
:10166000E1F7AE2F77FF04C0FF2011F0AFEFAE0F10
:1016700097FF05C0EE27FF27E81BF90B02C0E0E04B
:10168000F0E02038310524F020E8722E781A01C0ED
:10169000702E7E1A6A2F0A2E000C770BAF3F1CF4B7
:1016A000D62ED09401C0D12C21E03E2D377009F404
:1016B00020E0E694E694E694E20E6E0D711D69302A
:1016C00071051CF028E0E22EEA1AED183D2D3A0FC4
:1016D000DC0120E83203A00DB11D1124AE0FBF1FA5
:1016E000D09EE00DF11D11244E0F5F1F81E090E0B0
:1016F0004C010F2C02C0880C991C0A94E2F713309D
:1017000009F403C1A0F4113009F4B5C0123009F096
:101710003DC18FEF889DB001899D700D11246095AA
:1017200070957C836B835C802E2D230F2BC01A3F1A
:1017300031F01B3F09F02AC12E2D230F88C02E2D1A
:10174000230F51C0FA01E00FF11FE491E89D600101
:10175000E99DD00C1124DA82C98237FD07C0FC0153
:10176000E080EE2DE623CE2AFC01C082F11013C0EA
:101770000F5F1F4F0196071528F33F5F4A0D5B1D52
:10178000A058BF4F321709F401C1CD018E559E4FAD
:1017900000E010E0F0CF37305CF7FC01E058FF4F7D
:1017A000D080D520CA80DC28D082E2CFFA01E60FB3
:1017B000F71FE491E89D8001E99D100D11241A8323
:1017C000098337FD04C0FC011081012B0083F11057
:1017D00013C06F5F7F4F0196671540F33F5F4A0D5F
:1017E0005B1DA058BF4F321709F4D0C0CD018E55F4
:1017F0009E4F60E070E0F0CF37305CF78C0100580E
:101800001F4FF801E080EA81EE2AF801E082E1CF83
:10181000FA01E00FF11FE491E89DC001E99D900DF0
:1018200011249A83898337FD05C08095FB0190813F
:1018300089238083F11014C00F5F1F4F6F5F7F4FAC
:10184000071530F33F5F4A0D5B1DA058BF4F32179D
:1018500009F49CC0BD016E557E4F00E010E0F0CF52
:10186000373054F7FB01E058FF4F8A818095908113
:1018700089238083E1CFC2018E0F9F1F2E2D230F5E
:10188000321709F483C0BD016E557E4F6B0100E035
:1018900010E0071590F5FC01E00FF11FE491E89DC1
:1018A000B001E99D700D1124609570957C836B8368
:1018B000FA01E00FF11FE491E89D2001E99D500C31
:1018C00011245A82498237FD05C0F60170816723D1
:1018D000462A4082FF2059F037304CF4F601E05898
:1018E000FF4F70816C8167237A81672B60830F5F64
:1018F0001F4FFFEFCF1ADF0ACCCF3F5F4A0D5B1DB2
:101900008A0D9B1DA058BF4FBBCFC72CD12CE40F15
:10191000F51FAE55BE4F60E870E06C197D09AC183C
:10192000BD088501000F111F572D2E2DCF93DF937A
:10193000ED01EF96EF962296A590C590FF2059F005
:10194000A89C5001C89C600137302CF4E880D094EA
:10195000ED20EB28E99233233AF0EC90C094EC2090
:10196000EA28ED920C94B50C11965A9529F72A9510
:1019700051F0572D33951124E00FF11DA60FB11D25
:10198000C60FD11DD9CFDF91CF9111240F900F90A9
:101990000F900F90DF91CF911F910F91FF90EF90DB
:1019A000DF90CF90BF90AF909F908F907F905F908F
:1019B0004F9008952D9A0895BC0180E090E00C941A
:1019C00063098FB18095807F669B88601C9B8460D3
:1019D00008950C94751560387105D0F440345105A4
:1019E000B8F4EAEAF2E080E1849FD001A078112403
:1019F000A60F4770E40FF11D8491AE55BE4F222310
:101A000019F06C91862B03C080956C9186238C9382
:101A100008952F923F924F925F926F927F928F9292
:101A20009F92AF92BF92CF92DF92EF92FF920F936D
:101A30001F93CF93DF93CDB7DEB729970FB6F894F6
:101A4000DEBF0FBECDBFFC016A3069F425898189F4
:101A5000928938E0239F800D911D1124928B818BF8
:101A6000108A1786AAC06D3009F4A7C099878887A5
:101A7000F588348823886188728807851089003842
:101A80001105C4F0A885B98555962C915597422F1C
:101A900050E01F968D919C915097B6E02B9F800D42
:101AA000911D1124E885F985908B8787268921115E
:101AB0006EC083C0F0E46F16710424F7C80125E0FE
:101AC000F29E800D911D112418161906DCF68F2D3B
:101AD00090E09C838B83C301A8E0FA9E800D911D4A
:101AE00011241816190674F6B5E06B9FB001112485
:101AF000FB01EE54FD4FFA83E98330E08885998538
:101B000004969E838D83E981FA81E490353009F44F
:101B1000E12C430188E0482EE0FC02C0532C01C0B8
:101B2000522C51100BC0321009C0E6944A948B819C
:101B30009C81880E991E4110EFCF1BC068018C2D2F
:101B4000801B8F1590F754018A2D88198F1568F422
:101B5000252DA501B6018D819E813F830E94EB0C4E
:101B60009FEFA91AB90A3F81EFCFAFEFCA1ADA0A7D
:101B7000E6CF3F5FEB81FC810E0F1F1F89819A81A9
:101B800001969A838983363009F0BDCF7BCF6AEF07
:101B900064039001659F300D112420583F4F281792
:101BA00039075CF4A885B985ED91FC9111970190F6
:101BB000F081E02D6AE0CD01099581E090E0299661
:101BC0000FB6F894DEBF0FBECDBFDF91CF911F914E
:101BD0000F91FF90EF90DF90CF90BF90AF909F90CC
:101BE0008F907F906F905F904F903F902F900895CF
:101BF000CF92DF92FF920F931F93CF93DF936B01EE
:101C00009C01ECE6F1E060E070E0C081D18182816E
:101C100093818B0104591E4FD8011496FC901497A0
:101C200015965C91CC16DD0684F0CF0DD11DCC1637
:101C3000DD065CF42817390744F0DC01A50FB11D5F
:101C40002A173B0714F481E026C036966A5F7F4F5F
:101C500068317105D1F64423E9F06091000170917B
:101C600001014091020150910301F0910401E091C2
:101C70000501C616D70674F06F0F711DC616D7067C
:101C80004CF42417350734F04E0F511D81E0241712
:101C900035070CF080E0DF91CF911F910F91FF90FD
:101CA000DF90CF900895CF93DF93EC010E946715EA
:101CB00024E630E040E050E00E948B1521E06534DE
:101CC0007105810591050CF020E01C161D061CF421
:101CD000222329F00FC0CD2B11F021110EC00E943C
:101CE000671523E030E040E050E00E948B15CB0107
:101CF000019705C081E090E002C08FEF9FEFDF9178
:101D0000CF91089540919B0150919C0120919901A0
:101D100030919A0142175307B4F49091E8009570FE
:101D2000E1F39091E80092FD19C08093F100809159
:101D30009B0190919C0101968F739927892B19F42F
:101D40008EEF8093E80080919B0190919C01019619
:101D500090939C0180939B0181E0089580E0089519
:101D6000615030F02091F100FC0120830196F8CF02
:101D7000289884E68093A0010895CF93DF93CDB790
:101D8000DEB761970FB6F894DEBF0FBECDBF789473
:101D900084B5826084BD84B5816084BD85B5826070
:101DA00085BD85B5816085BD80916E008160809321
:101DB0006E0010928100809181008260809381008A
:101DC000809181008160809381008091800081609A
:101DD0008093800080919100826080939100809137
:101DE0009100816080939100809190008160809348
:101DF00090008091C10084608093C1008091C100F7
:101E000082608093C1008091C10081608093C10095
:101E10008091C30081608093C3008091C000826084
:101E20008093C0008091C20081608093C200809145
:101E30007A00846080937A0080917A008260809337
:101E40007A0080917A00816080937A0080917A0094
:101E5000806880937A001092A10110929E011092E6
:101E60009F018091D70081608093D70080EA8093A2
:101E7000D80089B5806189BD89B5826089BD09B402
:101E800000FEFDCF61E070E080E090E00E94630919
:101E90008091D8008F7C80618093D8008091E00091
:101EA000807F8093E0008091E1008E7E8093E1004E
:101EB0008DE08093E200559A209AEEEFFFE785913E
:101EC00094918B3F9C4D19F481E080939D0181ECAE
:101ED00080937C0085B1806F85B984B1877E84B999
:101EE00084B1876E84B95E9A5F988AB1806D8AB931
:101EF000769A6E9881B3806F81BB899880B38D701C
:101F000080BB80E58CBD81E08DBD85E090E00E94C6
:101F1000DC0C5F9A85E090E00E94DC0C5E985C9897
:101F2000ECE5F1E08DE08E0F94919EBD00000DB4C4
:101F300007FEFDCF31968E13F7CF5C9A81E8809330
:101F400064008091650081608093650080E00E945C
:101F5000E7050E94E10C87FF24C05C9885EA8EBDEE
:101F600000000DB407FEFDCF5C9A2E982F982D9897
:101F70008091640080628093640081E083BF8895D3
:101F800013BEFCCF2D980E94E10C8478843871F048
:101F90000E94E10C8471843131F188EC90E00E9460
:101FA000DC0C0E94E10C82FDEDCF3AC00E94DA0CFD
:101FB00088EC90E00E94DC0C2F9882E090E00E9478
:101FC00075158F3F29F06FEF82E090E00E947D153C
:101FD00084EF91E00E94DC0C2F9A0E94E10C84783F
:101FE0008438D9F3D5CF0E94DA0C88EC90E00E94B7
:101FF000DC0C2E9882E090E00E947515882329F071
:1020000060E082E090E00E947D1584EF91E00E9404
:10201000DC0C2E9A0E94E10C84718431D9F3BDCF7F
:102020000E94DA0C82E090E00E947515882331F05E
:102030003E9A3F9A81E08093620104C0109262014F
:102040003E983F9881E090E00E94E90C82FBFF24DB
:10205000F0F881FFA2C0F1102E9840EF5FEF5F878C
:102060004E8768E0862E912C0E94E10C86FF04C00A
:102070002E9A2F9A2D9A91C0FF2039F02E853F85F8
:102080002430310511F42E9A2F9881E00E94E70543
:102090002E853F8537FF03C0319521953109277083
:1020A00033278E859F8597FD079653E095958795F5
:1020B0005A95E1F74E855F8557FF05C00197F401FA
:1020C000E21BF30B9F018C011695102F002717952B
:1020D000079560E070E03401621A730AA801405865
:1020E0005F4F5A018F3F5FEF950744F40196685A9E
:1020F0007F4F8501603B710589F72AC0D801AA5C32
:10210000BD4F40E050E08F3FEFEF9E0709F43FC323
:10211000FA01E60FF71FE455FF4FE4906D01CA186E
:10212000DB08C00ED11EEE2DF0E0022E02C0EE0F35
:10213000FF1F0A94E2F7F98BE88BF601E080E8894B
:10214000F989EE29F98BE88BE888F601E0821FC354
:1021500080E00E94E7058FE090E00E94DC0C2E8575
:102160003F852F5F3F4F3F872E872931310509F08B
:102170007BCFFF2011F02F9A2D9880E991E00E94EB
:10218000DC0C0E94DA0CE091B605F091B7050190E5
:10219000F081E02D86EB95E0099582E390E00E94C6
:1021A000DC0C0E94E10C8111F8CF809164008E7FDD
:1021B0008093640080917A00806480937A0080919B
:1021C0007A0086FDFCCF00917800109179000E9482
:1021D0003E0920E030E0980111270027600F711FB1
:1021E000821F931F611571058105910511F00E94F1
:1021F0006C158091640081608093640081E280931B
:10220000BD0586E0ECE1F1E0ACE6B1E001900D92B5
:102210008A95E1F786E0E2E2F1E0A2E7B1E0019021
:102220000D928A95E1F786E0E8E2F1E0A8E7B1E0F7
:1022300001900D928A95E1F786E0EEE2F1E0AEE7DB
:10224000B1E001900D928A95E1F78EE190E09093D4
:1022500085018093840125E030E03093870120934D
:10226000860190938901809388018AE390E090939E
:102270008B0180938A0110929401109295018FB77F
:10228000F8944091630150916401609165017091EF
:1022900066018FBF8091BE05942F981B8091BF056A
:1022A000882329F09093C0051092BF0568C2209141
:1022B000BD05921748F49F5F921708F060C281E055
:1022C00083BF889513BE5BC291E09093BF05409396
:1022D000BE052091B9053091BA052F5F3F4F30936D
:1022E000BA052093B905E2EAF1E081118FEF0024ED
:1022F00081938193819381930394D1F71092C405C4
:102300001092C3051092C2051092C1058091BB05C1
:102310008093BC050E94E10C8093BB050E94E10CF8
:1023200087FF16C080910A0190910B01019790934D
:102330000B0180930A0180919801882349F0E09174
:102340009601F09197018281938101979383828313
:102350000E94E10C84FF16C080910A0190910B014C
:10236000019690930B0180930A0180919801882334
:1023700049F0E0919601F091970182819381019655
:10238000938382830E94E10C85FF09C0809108013C
:1023900090910901019790930901809308010E948F
:1023A000E10C86FF09C08091080190910901019616
:1023B00090930901809308018091BC0583FD04C0BE
:1023C0008091BB0583FDFEC10E94E10C82FF10924B
:1023D00098018091BC0582FD21C08091BB0582FFE0
:1023E0001DC0409108015091090160910A0170914E
:1023F0000B01809100019091010120910201309127
:102400000301F0910401E09105014817590734F0E8
:102410008F0F911D481759070CF42FC2F4E9EF2EC6
:10242000F1E0FF2EA4E8AA2EA1E0BA2EF7018081E8
:102430008823C9F18091900190919101F50120814B
:102440003181821B930B0E94530EF5010081118193
:10245000080F191F1801C280D380260141E0C20174
:10246000B1010E94F80D811103C0F50111830083B1
:1024700080919201909193018C199D090E94530EB5
:10248000F5010190F081E02DFA87E987F5010281DD
:102490001381080F191F1C870B8741E069857A8516
:1024A0008B859C8531C080E090E00E94530EF50141
:1024B00000811181080F191F1E830D832281338132
:1024C00038872F8341E06D817E818F8198850E94BE
:1024D000F80D811103C0F5011183008380E090E0C5
:1024E0000E94530EF5010190F081E02DFA83E983FB
:1024F000F50102811381080F191F1C830B8341E032
:1025000069817A818B819C810E94F80D811103C0C1
:10251000F50113830283F50160817181809190013F
:1025200090919101428153816817790749F4809114
:102530009201909193014817590711F4F701108205
:102540006038710514F06FE770E077FF02C060E05B
:1025500070E0F501718360834034510514F04FE35E
:1025600050E057FF02C040E050E0F5015383428342
:1025700000910801109109010038110514F00FE7CE
:1025800010E017FF02C000E010E010930901009373
:102590000801C0900A01D0900B01F0E4CF16D104DD
:1025A0001CF0EFE3CE2ED12CD7FE02C0C12CD12CD3
:1025B000D0920B01C0920A0121E086EB95E00E94C7
:1025C000EB0C2FEFE21AF20A34E0A30EB11C4CE838
:1025D000A41641E0B40609F029CF6CE6E62E61E0CE
:1025E000F62EA12CB12CF70162807380F501E4591D
:1025F000FE4F84812581F7010190F081E02DFF8756
:10260000EE874F01880E911C8E859F858815990550
:102610007CF4422FB3018E859F852D870E94F6059D
:102620004E855F854F5F5F4F5F874E872D85ECCF6F
:1026300096E0E90EF11CE6E0AE0EB11CF8E1AF1633
:10264000B10489F6E0900001F09001018090020150
:1026500090900301B0900401A09005012A2D4B2D0C
:10266000B401C7010E941F062CEF2A0D4CEF4B0D41
:10267000B4016E5F7F4FC70102960E941F066091F2
:1026800008017091090180910A0190910B0140E0CD
:102690000E94F80DB60162507109D8011297EBE261
:1026A000F2E0882339F00491ECE2F2E0E4905BEF91
:1026B000C52E06C00491ECE2F2E0E4904AEFC42E8D
:1026C00020E030E04DE252E0CD010E94F50AA090FA
:1026D0000601B0900701B7FC4FC060918C0170916A
:1026E0008D016750710980918E0190918F0107973C
:1026F000E9E6F1E00491EAE6F1E0E490AA2031F1A4
:10270000F501FF27EE0FFF1F402F50E02E2D2695DD
:1027100026952695A22FB0E021E030E01E2D1770FF
:1027200011F420E030E02A0F3B1F429FD001439F6D
:10273000B00D529FB00D1124EA9FA001EB9F500DE8
:10274000FA9F500D112445595E4F02C04BE651E0EF
:1027500023E0C22E20E030E00E94F50AFFEFAF1A1E
:10276000BF0A23E0A216B1040CF49BC04FEF5FEF49
:10277000509307014093060180E00E94E70580E046
:1027800090E0892B09F47BCD0E94000078CD2115C3
:10279000310581F0FA01E60FF71FE455FF4FE49190
:1027A000F0E0062C02C0F595E7950A94E2F7EC906C
:1027B000EE29EC934F5F5F4F11964835510509F0B4
:1027C000A2CC94CC809171008D7F80937100109287
:1027D0006B0182EA95E090936A018093690190937E
:1027E0006801809367018EE591E09093A305809343
:1027F000A20589E690E09093A5058093A40589E55C
:1028000091E09093A7058093A6058EE190E09093C8
:10281000A9058093A80580E090E89093AB0580938C
:10282000AA050E94E70981E08093940180939501B5
:102830008091080190910901A0910A01B0910B01CA
:102840008093900190939101A0939201B093930192
:10285000809108019091090190938F0180938E01DE
:1028600080910A0190910B0190938D0180938C01CE
:102870001092070110920601A7CD621773070CF49E
:10288000CDCD2E0F311D621773070CF0C7CD81E03F
:102890008093980180E091E0909397018093960156
:1028A000BDCDB0920701A092060166CFCF92DF9214
:1028B000EF92FF920F931F93CF93DF931F92CDB7A9
:1028C000DEB7182F062FE42E862F880F8E5F998390
:1028D0000E94820E83E00E94820EF12EC12E998109
:1028E000D92E8C2D8F19801798F4F601E7FE02C0BF
:1028F000849101C080810E94820E182F80E00E9486
:10290000820E8123FFEFCF1ADF0A8111EACF01C0C7
:1029100081E00F90DF91CF911F910F91FF90EF9089
:10292000DF90CF900895E6EDF5E01382128288EEF5
:1029300093E0A0E0B0E084839583A683B7838FE320
:1029400091E0918380838FEF9FEF95878487E2EBFF
:10295000F5E0138212821186128680E18387108649
:102960001782158681E591E0918380838FE591E060
:1029700095838483108A1786128A118A81E0838B5B
:10298000148A858B168A84E399E09093B10580932D
:10299000B00580E090E89093AF058093AE0546982F
:1029A0003E9A47983F9A08950F931F93CF93DF93D2
:1029B0008C0181E090E00E94E90C80FF32C08AE047
:1029C00090E00E94E90C9FEF980F9E3F50F522E3A4
:1029D00030E0D80150963C932E931F9728E330E0C7
:1029E00052963C932E935197CBE0D0E0D801ED91D5
:1029F000FC910190F081E02D682FC8010995CE016E
:102A00000E94E90C2196C131D10581F780E00E9436
:102A1000E70588EE93E0DF91CF911F910F910C9421
:102A2000DC0CDF91CF911F910F91089504970C94C6
:102A3000D4148F929F92AF92BF92CF92DF92EF9277
:102A4000FF92CF93DF93EC01688179818A819B812A
:102A5000611571058105910521F464E279ED8BE53D
:102A600097E02DE133EF41E050E00E948B154901E2
:102A70005A019B01AC01A7EAB1E40E94AA156B01BF
:102A80007C01ACEEB4EFA50194010E94B815DC0105
:102A9000CB018C0D9D1DAE1DBF1DB7FF03C001975F
:102AA000A109B04888839983AA83BB83BC01CD0167
:102AB0009F77DF91CF91FF90EF90DF90CF90BF9005
:102AC000AF909F908F9008950E941915089588E106
:102AD00091E00E94191508956093180170931901EF
:102AE00080931A0190931B010895F999FECF92BD2E
:102AF00081BDF89A992780B50895262FF999FECFC0
:102B00001FBA92BD81BD20BD0FB6F894FA9AF99A0A
:102B10000FBE01960895052E97FB1EF400940E94A7
:102B2000A21557FD07D00E94BD1507FC03D04EF437
:102B30000C94A21550954095309521953F4F4F4FDD
:102B40005F4F089590958095709561957F4F8F4F59
:102B50009F4F08950E94DF15A59F900DB49F900D83
:102B6000A49F800D911D11240895B7FF0C94AA1500
:102B70000E94AA15821B930B0895A1E21A2EAA1B8C
:102B8000BB1BFD010DC0AA1FBB1FEE1FFF1FA2171D
:102B9000B307E407F50720F0A21BB30BE40BF50B1A
:102BA000661F771F881F991F1A9469F760957095A3
:102BB000809590959B01AC01BD01CF010895A29F26
:102BC000B001B39FC001A39F700D811D1124911D01
:102BD000B29F700D811D1124911D0895EE0FFF1FEE
:102BE0000590F491E02D099481E090E0F8940C9424
:062BF000F915F894FFCF77
:102BF6003C000F000A22FFFF3F001F00FFFFFFFF00
:102C060000E1000000000000010000000A000A00C8
:102C1600280A0A002C00280A320000000A14320092
:102C26002C000A1400C1808100000000000000880A
:102C3600040905A9049E04EF04AD04CB04000000BA
:102C460000090DEF0839093809D414FCFF000016F5
:022C5600150067
:00000001FF
