:100000000C94E3030C940B040C940B040C940B045D
:100010000C940B040C940B040C940B040C940B0424
:100020000C940B040C940B040C9471050C94E305D4
:100030000C940B040C940B040C940B040C940B0404
:100040000C940B040C940B040C940B040C940B04F4
:100050000C940B040C940B040C940B040C94F708F4
:100060000C940B040C940B040C940B040C940B04D4
:100070000C940B040C940B040C940B040C940B04C4
:100080000C94EF090C940B040C940B040C940B04CB
:100090000C940B040C940B040C940B040C940B04A4
:1000A0000C940B040C940B040C940B04F0F89C8E31
:1000B0008783878E9CF8F00000FEFF030303030391
:1000C000070EFCF80000FEFF0303030303070EFC0A
:1000D000F80000FFFF00000000000000FFFF00002C
:1000E000FEFF8383838383C7EE7C380000F8FC0E19
:1000F00007030303070EFCF800003F7FE0C0808089
:10010000C0E07F3FFFFF01010101010101FFFF008E
:1001100000FFFF0C0C0C0C1C3E77E3C100007FFFBE
:10012000C0C0C0C0C0E0703F1F00001F3F70E0C0F3
:10013000C0C0E0703F1F00007FFFC1C1C1C1C1E36B
:10014000773E1C00001F3F70E0C0C0C0E0703F1F42
:10015000000000000001FFFF01000000D5F08D1439
:10016000A1C881CFD9F1AF2000101000000000001D
:10017000000000C0C020201010101010102020C05F
:10018000C0000000000000000000000000000000AF
:10019000000000010102020404040404040202013C
:1001A00001000000000000000000000000C0C0309E
:1001B00030080804040404020202020202040404D7
:1001C0000408083030C0C000000000000001010633
:1001D00006080810101010202020202020101010D9
:1001E0001008080606010100000000E0E0181804ED
:1001F00004020202020101010101010101010102E7
:1002000002020204041818E0E0000003030C0C10C2
:1002100010202020204040404040404040404020AE
:1002200020202010100C0C03030000647261776919
:100230006E6720696E7665727465640008081B112C
:1002400004111B000000010204081020408000007F
:100250000000003E5B4F5B3E3E6B4F6B3E1C3E7CA6
:100260003E1C183C7E3C181C577D571C1C5E7F5E54
:100270001C00183C1800FFE7C3E7FF001824180013
:10028000FFE7DBE7FF30483A060E262979292640AA
:100290007F050507407F05253F5A3CE73C5A7F3ED6
:1002A0001C1C08081C1C3E7F14227F22145F5F0068
:1002B0005F5F06097F017F006689956A6060606004
:1002C0006094A2FFA29408047E040810207E2010EF
:1002D00008082A1C08081C2A08081E101010100CF8
:1002E0001E0C1E0C30383E3830060E3E0E06000046
:1002F00000000000005F00000007000700147F14EA
:100300007F14242A7F2A1223130864623649562058
:10031000500008070300001C2241000041221C007D
:100320002A1C7F1C2A08083E08080080703000083C
:1003300008080808000060600020100804023E5110
:1003400049453E00427F40007249494946214149A2
:100350004D331814127F1027454545393C4A494909
:100360003141211109073649494936464949291E73
:100370000000140000004034000000081422411462
:1003800014141414004122140802015909063E41B4
:100390005D594E7C1211127C7F494949363E4141DC
:1003A00041227F4141413E7F494949417F09090935
:1003B000013E414151737F0808087F00417F4100A1
:1003C0002040413F017F081422417F404040407F50
:1003D000021C027F7F0408107F3E4141413E7F099D
:1003E0000909063E4151215E7F09192946264949DE
:1003F000493203017F01033F4040403F1F2040201E
:100400001F3F4038403F631408146303047804031B
:100410006159494D43007F414141020408102000C9
:100420004141417F0402010204404040404000033A
:1004300007080020545478407F2844443838444406
:100440004428384444287F385454541800087E09FE
:100450000218A4A49C787F0804047800447D40001E
:100460002040403D007F1028440000417F40007C38
:10047000047804787C080404783844444438FC1830
:1004800024241818242418FC7C0804040848545414
:10049000542404043F44243C4040207C1C20402041
:1004A0001C3C4030403C44281028444C9090907CA8
:1004B0004464544C440008364100000077000000BA
:1004C0004136080002010204023C2623263C1EA1FC
:1004D000A161123A4040207A38545455592155555B
:1004E000794121545478412155547840205455790C
:1004F000400C1E527212395555555939545454599D
:1005000039555454580000457C410002457D420055
:1005100001457C40F0292429F0F0282528F07C545E
:100520005545002054547C547C0A097F493249497E
:1005300049323248484832324A4848303A414121EB
:100540007A3A42402078009DA0A07D394444443945
:100550003D4040403D3C24FF2424487E4943662BD7
:100560002FFC2F2BFF0929F620C0887E0903205479
:100570005479410000447D413048484A3238404077
:10058000227A007A0A0A727D0D19317D2629292FD7
:1005900028262929292630484D40203808080808EF
:1005A00008080808382F10C8ACBA2F102834FA00F1
:1005B000007B000008142A142222142A1408950033
:1005C000220095AA005500AAAA55AA55AA00000023
:1005D000FF00101010FF00141414FF001010FF0093
:1005E000FF1010F010F0141414FC001414F700FFA6
:1005F0000000FF00FF1414F404FC141417101F1063
:10060000101F101F1414141F00101010F000000011
:10061000001F101010101F10101010F0100000001C
:10062000FF101010101010101010FF10000000FF2D
:10063000140000FF00FF00001F10170000FC04F46E
:1006400014141710171414F404F40000FF00F71426
:10065000141414141414F700F714141417141010AD
:100660001F101F141414F4141010F010F000001FC9
:10067000101F0000001F14000000FC140000F01008
:10068000F01010FF10FF141414FF141010101F00AE
:10069000000000F010FFFFFFFFFFF0F0F0F0F0FFB0
:1006A000FFFF0000000000FFFF0F0F0F0F0F384487
:1006B0004438447C2A2A3E147E02020606027E0248
:1006C0007E0263554941633844443C04407E201E09
:1006D0002006027E020299A5E7A5991C2A492A1C38
:1006E0004C7201724C304A4D4D303048784830BC25
:1006F000625A463D3E494949007E0101017E2A2A4F
:100700002A2A2A44445F444440514A444040444ACF
:1007100051400000FF0103E080FF000008086B6B00
:10072000083612362436060F090F06000018180086
:1007300000001010003040FF0101001F01011E00E9
:10074000191D1712003C3C3C3C0000000000080B47
:10075000000202020100090400000102020000057B
:1007600024001001052401010104240206052406C9
:1007700000010705810310004009040100020A007E
:100780000000070502024000000705830240000048
:100790000403090412010002EF02014041233680E4
:1007A00000010102030141726475696E6F204C4CB7
:1007B000430041726475696E6F204C656F6E6172A3
:1007C000646F0000D01311241FBECFEFDAE0DEBF4C
:1007D000CDBF11E0A0E0B1E0E6EEF9E202C0059085
:1007E0000D92AC35B107D9F726E0ACE5B1E001C018
:1007F0001D92AB32B207E1F713E0C3EED3E004C0C1
:100800002197FE010E94E614C23ED107C9F70E945B
:100810000D0E0C94F1140C9400004091A301509122
:10082000A4012091A1013091A20142175307B4F411
:100830009091E8009570E1F39091E80092FD19C065
:100840008093F1008091A3019091A40101968F7390
:100850009927892B19F48EEF8093E8008091A301EA
:100860009091A40101969093A4018093A30181E04B
:10087000089580E00895DF92EF92FF920F931F9307
:10088000CF93DF93D82E8A017B01E40EF51EEB0196
:10089000CE15DF0571F0D7FE03C0FE01849101C0C3
:1008A00088810E940D0421968111F2CF8FEF9FEF76
:1008B00001C0C801DF91CF911F910F91FF90EF9080
:1008C000DF900895615030F02091F100FC01208309
:1008D0000196F8CF289884E68093A6010895CF92D8
:1008E000DF92EF92FF920F931F93CF93DF936C01F0
:1008F0007A018B01C0E0D0E0CE15DF0589F0D80188
:100900006D918D01D601ED91FC910190F081E02D6A
:10091000C6010995892B11F47E0102C02196ECCF06
:10092000C701DF91CF911F910F91FF90EF90DF9062
:10093000CF900895CF93DF931F92CDB7DEB7698331
:10094000DC01ED91FC910280F381E02D41E050E06B
:10095000BE016F5F7F4F09950F90DF91CF91089592
:1009600083E08093E9008091F200882319F08AE304
:100970008093E8000895FC018485958597FD0BC060
:100980009FB7F89482E08093E9008091F2009FBFC6
:1009900090E0019608959FB7F89482E08093E90073
:1009A0008091F2009FBF90E0089580916801E091EE
:1009B0006601F0916701882349F0CF010296909378
:1009C000670180936601859194910895CF01029605
:1009D0009093670180936601808191810895809151
:1009E0005F0108950895089580E090E008950E94C1
:1009F000EC140F931F93CF93DF931F92CDB7DEB705
:100A000082E0898342E450E06EE477E080E80E946F
:100A10003B040E94F90DDC0112960D911C91139775
:100A20000115110569F0D801ED91FC910280F38167
:100A3000E02DBE016F5F7F4FC801099597FF07C08A
:100A400089810F90DF91CF911F910F910895F80147
:100A500000851185E5CF0E94E80D90E00895CF93C1
:100A6000DF931F92CDB7DEB7FC018485958597FD96
:100A700005C02FEF3FEF358724870BC0CE010196CD
:100A80000E94BE0D019719F4898190E002C08FEF9A
:100A90009FEF0F90DF91CF9108950F931F93CF9306
:100AA000DF931F92CDB7DEB78C01FC01848595855D
:100AB00097FF0EC0CE0101960E94BE0D019719F45A
:100AC000298130E002C02FEF3FEFF80135872487FE
:100AD000F801848595850F90DF91CF911F910F913B
:100AE00008951F920F920FB60F9211248F939F9328
:100AF0008091E1009091E100937F9093E10083FF6A
:100B00000FC01092E90091E09093EB001092EC007E
:100B100092E39093ED001092A70198E09093F0007B
:100B200082FF20C093E09093E9009091F200992316
:100B300019F09AE39093E8009091A501992339F078
:100B40009091A50191509093A501992389F19091DD
:100B5000A601992339F09091A60191509093A60196
:100B6000992341F184FF10C08091E2008E7E816064
:100B70008093E2008091E1008F7E8093E10080917C
:100B80005D018E7E806111C080FF16C08091E20001
:100B90008E7E80618093E2008091E1008E7E809362
:100BA000E10080915D018E7E816080935D0104C0D3
:100BB0005D9ACDCF289AD6CF9F918F910F900FBE7F
:100BC0000F901F9018951F920F920FB60F9211243D
:100BD000CF92DF92EF92FF920F931F932F933F9349
:100BE0004F935F936F937F938F939F93AF93BF9335
:100BF000EF93FF93CF93DF93CDB7DEB76C97DEBF54
:100C0000CDBF1092E9008091E80083FFEDC168E05C
:100C1000CE0145960E94620482EF8093E8008D89A0
:100C200087FF05C09091E80090FFFCCF03C09EEFC6
:100C30009093E800982F907609F0C6C09E892F897E
:100C4000188D91110CC0803829F480915E01809339
:100C5000F10002C01092F1001092F10048C1422F41
:100C600050E0512B913051F4811141C14130510577
:100C700009F03DC180915E018D7F0BC0933061F41E
:100C8000811135C14130510509F031C180915E01BA
:100C9000826080935E012BC1953041F48091E80021
:100CA00080FFFCCF20682093E30021C1963009F03B
:100CB0005FC0EB8CFC8C1092E9001092A4011092A2
:100CC000A301123091F51092A2011092A1010E948D
:100CD000F90499E0BE016F5F7F4FDB01E92F1D92A0
:100CE000EA95E9F799831A8391E09E8390EA9887C1
:100CF0009AEF99872091A3013091A401275F3F4F7C
:100D00003C832B838D831092E9001092A4011092F2
:100D1000A301F092A201E092A10149E050E080E03D
:100D20000E943B040E94F904E2C0F092A201E0920A
:100D3000A1010E94F90DDC011296ED90FC90139731
:100D4000E114F10409F4C0C0D701ED91FC910480D5
:100D5000F581E02DBE016B5E7F4FC70109950097BD
:100D600019F00CF0C4C0C7C0F701E084F184E8CFEB
:100D7000973009F4C0C0983021F481E08093F100ED
:100D8000B6C0993009F0B3C0837009F0B4C0EFE287
:100D9000F1E081E021E036E39081992361F08093D6
:100DA000E9002093EB0091919093EC003093ED00DB
:100DB0008F5F873089F78EE78093EA001092EA0010
:100DC0008F898093A70193C08B8D9C8D1092E90031
:100DD0001092A4011092A3019093A2018093A1010B
:100DE000898D811156C08E899D89913A59F481323D
:100DF00009F081C047E050E06AE071E080E00E94C5
:100E00003B0475C0913209F076C0833289F4888D35
:100E100090E0982F88272F89822BA0E0B0E0809364
:100E2000060190930701A0930801B09309015FC0E8
:100E3000803269F48091E80082FFFCCF67E08AE0AD
:100E400091E00E9462048BEF8093E80006C082323A
:100E500009F04DC08F898093110180915C01882336
:100E600019F0EEEFFAE002C0E0E0F8E080910A014C
:100E700090910B01A0910C01B0910D01803B944029
:100E8000A105B10509F07BC08091110180FF93C0DD
:100E900076C00E94F90DDC0112960D911C911397FA
:100EA0000115110541F1D801ED91FC910190F081FE
:100EB000E02DBE016B5E7F4FC8010995811117C0FF
:100EC000F80100851185ECCF113009F44EC01330C4
:100ED00091F48F89882309F445C0823081F440E879
:100EE00060E182EB97E00E944E13882321F08EEFA1
:100EF0008093E80079C081E28093EB0075C0813077
:100F000029F440E86BE086EA97E0EDCF833099F76B
:100F10000E94F90DDC011296ED90FC9013978E0162
:100F20000F5F1F4F6801E114F10479F0D701ED91D3
:100F3000FC910680F781E02DB801C7010995080FE3
:100F4000111DF701E084F184EECFD8011C92F60167
:100F500001900020E9F73197BF016C197D0940E04D
:100F6000C601C1CF60E977E002C064E977E06115AE
:100F7000710509F2FB01449150E080E840CF0FB6C3
:100F8000F894A89580916000886180936000109229
:100F900060000FBEA895EE3F2AE0F20739F080917D
:100FA000FE0A9091FF0A91838083A1CF1092FF0ADD
:100FB0001092FE0A9CCFEE3F8AE0F80731F0808164
:100FC00091819093FF0A8093FE0A87E797E79183C8
:100FD00080839BE088E10FB6F894A8958093600029
:100FE0000FBE9093600083CF6C960FB6F894DEBF6F
:100FF0000FBECDBFDF91CF91FF91EF91BF91AF9128
:101000009F918F917F916F915F914F913F912F9120
:101010001F910F91FF90EF90DF90CF900F900FBE38
:101020000F901F9018953FB7F89480919D01909173
:101030009E01A0919F01B091A00126B5A89B05C07B
:101040002F3F19F00196A11DB11D3FBFBA2FA92F47
:10105000982F8827820F911DA11DB11DBC01CD01C4
:1010600042E0660F771F881F991F4A95D1F70895B0
:101070008F929F92AF92BF92CF92DF92EF92FF92A8
:101080006B017C010E9413084B015C01C114D10467
:10109000E104F104F1F00E941308DC01CB0188198E
:1010A0009909AA09BB09883E9340A105B10570F3CF
:1010B00021E0C21AD108E108F10888EE880E83E029
:1010C000981EA11CB11CC114D104E104F10419F74C
:1010D000DDCFFF90EF90DF90CF90BF90AF909F90CB
:1010E0008F9008958F929F92AF92BF92CF92DF928E
:1010F000EF92FF920F931F93CF93DF935C016B01ED
:101100007A0180911101882309F45BC08091A701C5
:10111000882309F456C080915D0180FF05C080914D
:10112000E00082608093E000E70110E00AEF83E0D6
:10113000882E9AE3992E2097D9F10E94E80D81110B
:101140000AC0015009F43DC061E070E080E090E029
:101150000E943808F0CF282F30E0C217D3070CF4D4
:101160008C2F4FB7F8948092E9009091E80095FF9A
:101170001DC0282F30E0C21BD30BF601982F9150D1
:1011800020F081918093F100FACFC20ED31E11237B
:1011900019F09092E80009C08091E80085FD06C032
:1011A0009092E80011E0209709F010E04FBFC3CF04
:1011B0001111C3CF5D9884E68093A5011E141F040E
:1011C00044F081E090E0F5019383828380E090E039
:1011D00001C0C701DF91CF911F910F91FF90EF9058
:1011E000DF90CF90BF90AF909F908F9008951F9207
:1011F0000F920FB60F9211242F933F938F939F93CB
:10120000AF93BF938091600190916101A0916201C1
:10121000B091630130919C0123E0230F2D3720F41E
:101220000196A11DB11D05C026E8230F0296A11D40
:10123000B11D20939C018093600190936101A09364
:101240006201B093630180919D0190919E01A091F4
:101250009F01B091A0010196A11DB11D80939D0138
:1012600090939E01A0939F01B093A001BF91AF9175
:101270009F918F913F912F910F900FBE0F901F90D4
:101280001895CF92DF92EF92FF920F931F93CF9317
:10129000DF930E94D504811520E8920761F48091C4
:1012A00071008D7F8093710010929100469847984D
:1012B000109295018BC021E020939501813020E8A8
:1012C000920751F4809164019091650190936701B8
:1012D000809366010E94D50497FD05C0209194017A
:1012E000222309F43FC02091930121113BC021E04A
:1012F00020939601EC01DF77209769F481E08093D9
:10130000970146983FE9C32E3FE0D32EE12CF12C04
:10131000CAEFD0E014C08E0120E030E060E472E457
:101320008FE090E0A90198010E94831469017A017D
:1013300081E0C81AD108E108F10810929701E09104
:101340000606F09107060995811103C081E080939C
:101350009701809196018823B9F1809197018111BD
:1013600033C003C010929601C5CF46992DC0479A4D
:101370000E94D504009771F09C01DE010E94D714F1
:10138000DC01CB0129E0B595A795979587952A951E
:10139000D1F703C08FEF9FEFDC01109290002AE09D
:1013A00020939100D0929900C09298008093980168
:1013B00090939901A0939A01B0939B018091710041
:1013C00082608093710002C04798D2CFDF91CF91A5
:1013D0001F910F91FF90EF90DF90CF9008951F9293
:1013E0000F920FB60F9211242F933F934F935F9359
:1013F0006F937F938F939F93AF93BF93EF93FF93DD
:101400008091980190919901A0919A01B0919B01CE
:10141000892B8A2B8B2B81F18091970181110BC035
:1014200098B180E4892788B980919601882319F0C2
:1014300088B1805888B98091980190919901A091C4
:101440009A01B0919B01181619061A061B06B4F4EE
:101450008091980190919901A0919A01B0919B017E
:101460000197A109B1098093980190939901A093E4
:101470009A01B0939B0102C00E944109FF91EF9134
:10148000BF91AF919F918F917F916F915F914F919C
:101490003F912F910F900FBE0F901F9018954F9274
:1014A0005F927F928F929F92AF92BF92CF92DF9284
:1014B000EF92FF920F931F93CF93DF9300D000D052
:1014C000CDB7DEB729011C2DA02EB12C9C012A0D11
:1014D0003B1D121613060CF0B3C1803891050CF0B9
:1014E000AFC1FB01EE0DF11D1E161F060CF0A8C1C9
:1014F000603471050CF0A4C14115510509F4A0C177
:10150000E62FE770FE2EFB0177FD3796A3E0F595F9
:10151000E795AA95E1F7AE2F77FF04C0FF2011F001
:10152000AFEFAE0F97FF05C0EE27FF27E81BF90BC3
:1015300002C0E0E0F0E02038310524F020E8722E0F
:10154000781A01C0702E7E1A6A2F0A2E000C770BB3
:10155000AF3F1CF4D62ED09401C0D12C21E03E2DFB
:10156000377009F420E0E694E694E694E20E6E0DFE
:10157000711D693071051CF028E0E22EEA1AED18A1
:101580003D2D3A0FDC0120E83203A00DB11D1124DE
:10159000AE0FBF1FD09EE00DF11D11244E0F5F1F37
:1015A00081E090E04C010F2C02C0880C991C0A9439
:1015B000E2F7133009F403C1A0F4113009F4B5C007
:1015C000123009F03DC18FEF889DB001899D700DEB
:1015D0001124609570957C836B835C802E2D230F86
:1015E0002BC01A3F31F01B3F09F02AC12E2D230FCB
:1015F00088C02E2D230F51C0FA01E00FF11FE49196
:10160000E89D6001E99DD00C1124DA82C98237FD82
:1016100007C0FC01E080EE2DE623CE2AFC01C0824B
:10162000F11013C00F5F1F4F0196071528F33F5F9E
:101630004A0D5B1DA058BF4F321709F401C1CD01FF
:1016400088559E4F00E010E0F0CF37305CF7FC018A
:10165000E058FF4FD080D520CA80DC28D082E2CF6E
:10166000FA01E60FF71FE491E89D8001E99D100D56
:1016700011241A83098337FD04C0FC011081012B5A
:101680000083F11013C06F5F7F4F0196671540F321
:101690003F5F4A0D5B1DA058BF4F321709F4D0C001
:1016A000CD0188559E4F60E070E0F0CF37305CF799
:1016B0008C0100581F4FF801E080EA81EE2AF80102
:1016C000E082E1CFFA01E00FF11FE491E89DC00153
:1016D000E99D900D11249A83898337FD05C080957B
:1016E000FB01908189238083F11014C00F5F1F4F8D
:1016F0006F5F7F4F071530F33F5F4A0D5B1DA058AA
:10170000BF4F321709F49CC0BD0168557E4F00E001
:1017100010E0F0CF373054F7FB01E058FF4F8A81DB
:101720008095908189238083E1CFC2018E0F9F1F16
:101730002E2D230F321709F483C0BD0168557E4F4B
:101740006B0100E010E0071590F5FC01E00FF11FC0
:10175000E491E89DB001E99D700D112460957095AC
:101760007C836B83FA01E00FF11FE491E89D200177
:10177000E99D500C11245A82498237FD05C0F601BB
:1017800070816723462A4082FF2059F037304CF49D
:10179000F601E058FF4F70816C8167237A81672BD7
:1017A00060830F5F1F4FFFEFCF1ADF0ACCCF3F5F81
:1017B0004A0D5B1D8A0D9B1DA058BF4FBBCFC72C88
:1017C000D12CE40FF51FA855BE4F60E870E06C19EE
:1017D0007D09AC18BD088501000F111F572D2E2D56
:1017E000CF93DF93ED01EF96EF962296A590C590EB
:1017F000FF2059F0A89C5001C89C600137302CF4A0
:10180000E880D094ED20EB28E99233233AF0EC9075
:10181000C094EC20EA28ED920C940F0C11965A9586
:1018200029F72A9551F0572D33951124E00FF11D1A
:10183000A60FB11DC60FD11DD9CFDF91CF911124B5
:101840000F900F900F900F90DF91CF911F910F91FC
:10185000FF90EF90DF90CF90BF90AF909F908F90D0
:101860007F905F904F9008952D9A0895BC0180E07D
:1018700090E00C9438088FB18095807F669B8860DB
:101880001C9B846008950C946D1460387105D0F42D
:1018900040345105B8F4E6E4F2E080E1849FD001E1
:1018A000A0781124A60F4770E40FF11D8491A8556C
:1018B000BE4F222319F06C91862B03C080956C914A
:1018C00086238C9308952F923F924F925F926F924E
:1018D0007F928F929F92AF92BF92CF92DF92EF92C0
:1018E000FF920F931F93CF93DF93CDB7DEB7299766
:1018F0000FB6F894DEBF0FBECDBFFC016A3069F4AD
:1019000025898189928938E0239F800D911D1124BA
:10191000928B818B108A1786AAC06D3009F4A7C0FC
:1019200099878887F5883488238861887288078535
:10193000108900381105C4F0A885B98555962C91F9
:101940005597422F50E01F968D919C915097B6E08D
:101950002B9F800D911D1124E885F985908B878739
:10196000268921116EC083C0F0E46F16710424F73C
:10197000C80125E0F29E800D911D1124181619064C
:10198000DCF68F2D90E09C838B83C301A8E0FA9E48
:10199000800D911D11241816190674F6B5E06B9F81
:1019A000B0011124FB01E25BFD4FFA83E98330E0D3
:1019B0008885998504969E838D83E981FA81E490D8
:1019C000353009F4E12C430188E0482EE0FC02C0E8
:1019D000532C01C0522C51100BC0321009C0E69498
:1019E0004A948B819C81880E991E4110EFCF1BC0B9
:1019F00068018C2D801B8F1590F754018A2D881952
:101A00008F1568F4252DA501B6018D819E813F8338
:101A10000E94450C9FEFA91AB90A3F81EFCFAFEFA3
:101A2000CA1ADA0AE6CF3F5FEB81FC810E0F1F1F57
:101A300089819A8101969A838983363009F0BDCFD6
:101A40007BCF6AEF64039001659F300D112420580D
:101A50003F4F281739075CF4A885B985ED91FC91B3
:101A600011970190F081E02D6AE0CD01099581E0A8
:101A700090E029960FB6F894DEBF0FBECDBFDF9180
:101A8000CF911F910F91FF90EF90DF90CF90BF907B
:101A9000AF909F908F907F906F905F904F903F900E
:101AA0002F9008951F93CF93DF93DB01BC01E9E6EC
:101AB000F1E080E090E04081518122813381EC01AE
:101AC000C759DE4F1C81CD81A417B5077CF0410FAB
:101AD000511DA417B50754F4621773073CF02C0F7F
:101AE000311D6217730714F481E006C0369606961E
:101AF0008831910501F780E0DF91CF911F91089522
:101B0000CF93DF93EC010E945F1424E630E040E0C5
:101B100050E00E94831421E0653471058105910530
:101B20000CF020E01C161D061CF4222329F00FC027
:101B3000CD2B11F021110EC00E945F1423E030E084
:101B400040E050E00E948314CB01019705C081E082
:101B500090E002C08FEF9FEFDF91CF910895E8EA08
:101B6000F1E0A0E0B8E000800EBC8111012C1197DB
:101B7000A0FDFDCF0192B9F70DB40895FC0180914D
:101B8000A701811103C08FEF9FEF08959FB7F894CD
:101B900082E08093E9002091F20030E012161306F3
:101BA00014F421E030E02115310559F0289884E63D
:101BB0008093A6018091F10080838091F2008823B8
:101BC00019F09FBFC90108958BE68093E800F9CF13
:101BD0002FB7F89483E08093E9009091E800892F73
:101BE000807295FF04C09091F20080E4891B2FBFA2
:101BF00008958091230681110DC082E080931F0615
:101C000084E080932006109222061092210681E043
:101C1000809323068FE196E00895CF93DF93CDB7AD
:101C2000DEB762970FB6F894DEBF0FBECDBF7894D3
:101C300084B5826084BD84B5816084BD85B58260D1
:101C400085BD85B5816085BD80916E008160809382
:101C50006E001092810080918100826080938100EB
:101C600080918100816080938100809180008160FB
:101C70008093800080919100826080939100809198
:101C800091008160809391008091900081608093A9
:101C900090008091C10084608093C1008091C10058
:101CA00082608093C1008091C10081608093C100F7
:101CB0008091C30081608093C3008091C0008260E6
:101CC0008093C0008091C20081608093C2008091A7
:101CD0007A00846080937A0080917A008260809399
:101CE0007A0080917A00816080937A0080917A00F6
:101CF000806880937A001092A70110925E01109282
:101D00005D018091D70081608093D70080EA809345
:101D1000D80089B5806189BD89B5826089BD09B463
:101D200000FEFDCF61E070E080E090E00E943808A6
:101D30008091D8008F7C80618093D8008091E000F2
:101D4000807F8093E0008091E1008E7E8093E100AF
:101D50008DE08093E200559A209AEEEFFFE785919F
:101D600094918B3F9C4D19F481E080935C0181EC50
:101D700080937C0085B1806F85B984B1877E84B9FA
:101D800084B1876E84B95E9A5F988AB1806D8AB992
:101D9000769A6E9881B3806F81BB899880B38D707D
:101DA00080BB80E58CBD81E08DBD85E090E00E9428
:101DB000360C5F9A85E090E00E94360C5E985C9845
:101DC000ECE5F1E08DE08E0F94919EBD00000DB426
:101DD00007FEFDCF31968E13F7CF5C9A81E8809392
:101DE00064008091650081608093650080E00E94BE
:101DF000AF0D0E943B0C87FF24C05C9885EA8EBD26
:101E000000000DB407FEFDCF5C9A2E982F982D98F8
:101E10008091640080628093640081E083BF889534
:101E200013BEFCCF2D980E943B0C8478843871F04F
:101E30000E943B0C8471843131F188EC90E00E9467
:101E4000360C0E943B0C82FDEDCF3AC00E94340C50
:101E500088EC90E00E94360C2F9882E090E00E947F
:101E60006D148F3F29F06FEF82E090E00E947514AF
:101E700084EF91E00E94360C2F9A0E943B0C8478EC
:101E80008438D9F3D5CF0E94340C88EC90E00E94BE
:101E9000360C2E9882E090E00E946D14882329F081
:101EA00060E082E090E00E94751484EF91E00E946F
:101EB000360C2E9A0E943B0C84718431D9F3BDCF2D
:101EC0000E94340C82E090E00E946D14882331F06F
:101ED0003E9A3F9A81E080935F0104C010925F01B7
:101EE0003E983F9881E090E00E94430C82FBFF24E3
:101EF000F0F881FF93C0F1102E9800EF402E55248A
:101F00005A9488E0882E912C0E943B0C86FF04C0D6
:101F10002E9A2F9A2D9A82C0FF2031F034E043167A
:101F2000510411F42E9A2F9881E00E94AF0D920176
:101F300057FE04C022273327241935092770332779
:101F4000C20157FC079613E0959587951A95E1F71E
:101F500057FE05C00197A401421B530B9A018C0147
:101F60001695102F00271795079540E050E0340193
:101F7000621A730AB80160587F4F5B018F3F7FEF91
:101F8000970744F40196485A5F4F8501403B51053D
:101F900089F721C0D801A45CBD4F60E070E08F3F9D
:101FA000EFEF9E0709F4FFC2FB01E40FF51FE455B4
:101FB000FF4FE4916D01CA18DB08C00ED11EF0E09E
:101FC0001F01022E01C0220C0A94EAF7F601E080FC
:101FD0002E282082E8C280E00E94AF0D8FE090E0C2
:101FE0000E94360CFFEF4F1A5F0A29E14216510496
:101FF00009F08ACFFF2011F02F9A2D9880E991E007
:102000000E94360C0E94340CE0910C06F0910D06F3
:102010000190F081E02D8CE096E0099582E390E05C
:102020000E94360C0E943B0C8111F8CF8091640015
:102030008E7F8093640080917A00806480937A0020
:1020400080917A0086FDFCCF009178001091790094
:102050000E94130820E030E0980111270027600F4C
:10206000711F821F931F611571058105910511F084
:102070000E9464148091640081608093640081E216
:102080008093130686E0E6E1F1E0A9E6B1E0019075
:102090000D928A95E1F786E0ECE1F1E0AFE6B1E080
:1020A00001900D928A95E1F786E0E2E2F1E0A5E782
:1020B000B1E001900D928A95E1F786E0E8E2F1E067
:1020C000ABE7B1E001900D928A95E1F78EE190E0E7
:1020D000909382018093810125E030E03093840168
:1020E0002093830190938601809385018AE390E099
:1020F0009093880180938701109291011092920130
:102100008FB7F89440916001509161016091620134
:10211000709163018FBF80911406942F981B80915A
:102120001506882329F0909316061092150633C2DF
:1021300020911306921748F49F5F921708F02BC264
:1021400081E083BF889513BE26C291E09093150667
:102150004093140620910F06309110062F5F3F4FD9
:102160003093100620930F06E8EAF1E081118FEF1B
:10217000002481938193819381930394D1F71092EA
:102180001A061092190610921806109217068091DE
:102190001106809312060E943B0C809311060E9448
:1021A0003B0C87FF09C080910401909105010197C4
:1021B00090930501809304010E943B0C84FF09C0A9
:1021C00080910401909105010196909305018093FF
:1021D00004010E943B0C85FF09C08091020190918F
:1021E0000301019790930301809302010E943B0C2D
:1021F00086FF09C08091020190910301019690939E
:102200000301809302018091120683FD04C0809136
:10221000110683FDE3C1F1E9EF2EF1E0FF2E01E8A5
:1022200011E0F70180818823D9F180918D0190918F
:102230008E01F80120813181821B930B0E94800D59
:10224000F801A080B180A80EB91EBE86AD86C280FE
:10225000D380D88ACF866D857E858F8598890E94A8
:10226000520D811103C0F801B182A08280918F01CB
:10227000909190018C199D090E94800DF8010190A8
:10228000F081E02DFA87E987F801C280D380C80E7B
:10229000D91EDC86CB8669857A858B859C852FC087
:1022A00080E090E00E94800DF801C080D180C80ECF
:1022B000D91EDE82CD822281338138872F836D81C2
:1022C0007E818F8198850E94520D811103C0F80193
:1022D000D182C08280E090E00E94800DF8010190E0
:1022E000F081E02DFA83E983F801C280D380C80E23
:1022F000D91EDC82CB8269817A818B819C810E948C
:10230000520D811103C0F801D382C282F8016081AD
:10231000718180918D0190918E0142815381681766
:10232000790749F480918F019091900148175907DE
:1023300011F4F70110826038710514F06FE770E056
:1023400077FF02C060E070E0F80171836083403481
:10235000510514F04FE350E057FF02C040E050E059
:10236000F801538342834090020150900301F0E84A
:102370004F1651041CF0EFE74E2E512C57FE02C0B1
:10238000412C512C509203014092020120910401F2
:10239000309105013A8B298B2034310524F08FE3ED
:1023A00090E09A8B898BE989FA89F7FF02C01A8A33
:1023B000198A29893A89309305012093040121E083
:1023C0008CE096E00E94450C3FEFE31AF30A0C5FA5
:1023D0001F4F41E00938140709F023CF69E6A62E04
:1023E00061E0B62EC12CD12CF50182809380F601DC
:1023F000E759FE4F84819581F50100811181180113
:10240000280E311C3401690E711C02151305F4F4F9
:10241000740197FE10C0E12CF12C0DC0E816F906EE
:1024200094F421E0A701B8018CE096E00E94450CED
:10243000FFEFEF1AFF0AC30121E46216710474F37F
:1024400080E490E0EBCF0F5F1F4FDFCF36E0A30EAD
:10245000B11C46E0C40ED11C58E1C516D10421F6CA
:102460006091020170910301809104019091050136
:102470000E94520D69897A8962507109D2011297BE
:10248000ECE3F2E0882311F10491EDE3F2E0E49053
:102490005BEFC52E20E030E04EE352E0CD010E941C
:1024A0004F0A0BE212E0F80164916623E1F0E0913B
:1024B000A805F091A9050190F081E02D88EA95E04A
:1024C00009950F5F1F4F892B71F70DC00491EDE344
:1024D000F2E0E4904AEFC42E20E030E04EE352E018
:1024E000CD010E944F0AA0900001B0900101B7FCFD
:1024F0004FC06091890170918A0167507109809184
:102500008B0190918C010797E9E6F1E00491EAE6EE
:10251000F1E0E490AA2031F1F501FF27EE0FFF1F53
:10252000402F50E02E2D269526952695A22FB0E01F
:1025300021E030E01E2D177011F420E030E02A0F6A
:102540003B1F429FD001439FB00D529FB00D1124FD
:10255000EA9FA001EB9F500DFA9F500D11244559A1
:102560005E4F02C04BE651E023E0C22E20E030E097
:102570000E944F0AFFEFAF1ABF0A23E0A216B10470
:102580000CF487C04FEF5FEF5093010140930001BF
:1025900080E00E94AF0D80E090E0892B09F4B0CD7F
:1025A0000E940000ADCD2115310581F0FB01E40F43
:1025B000F51FE455FF4FE491F0E0062C02C0F595BD
:1025C000E7950A94E2F7EC90EE29EC936F5F7F4F6A
:1025D00011966835710509F0E2CCD4CC8091710078
:1025E0008D7F809371001092680188EF95E0909341
:1025F00067018093660190936501809364018EE585
:1026000091E09093F9058093F80589E690E0909326
:10261000FB058093FA0589E591E09093FD05809391
:10262000FC058EE190E09093FF058093FE0580E02D
:1026300090E890930106809300060E94410981E092
:102640008093910180939201809102019091030106
:10265000A0910401B091050180938D0190938E01AA
:10266000A0938F01B093900180910201909103019A
:1026700090938C0180938B018091040190910501CE
:1026800090938A01809389011092010110920001B8
:10269000C2CDB0920101A09200017ACFCF92DF9219
:1026A000EF92FF920F931F93CF93DF931F92CDB7BB
:1026B000DEB7182F062FE42E862F880F8E5F9983A2
:1026C0000E940D0483E00E940D04F12EC12E998119
:1026D000D92E8C2D8F19801798F4F601E7FE02C0D1
:1026E000849101C080810E940D04182F80E00E9417
:1026F0000D048123FFEFCF1ADF0A8111EACF01C059
:1027000081E00F90DF91CF911F910F91FF90EF909B
:10271000DF90CF9008950F931F93CF93DF938C0199
:1027200081E090E00E94430C80FF32C08AE090E09C
:102730000E94430C9FEF980F9E3F50F522E330E03C
:10274000D80150963C932E931F9728E330E0529681
:102750003C932E935197CBE0D0E0D801ED91FC91C2
:102760000190F081E02D682FC8010995CE010E94EB
:10277000430C2196C131D10581F780E00E94AF0D55
:1027800088EE93E0DF91CF911F910F910C94360C5E
:10279000DF91CF911F910F91089504970C948B13A3
:1027A000E8EAF5E01382128288EE93E0A0E0B0E060
:1027B00084839583A683B78389E391E091838083A3
:1027C0008FEF9FEF95878487E8E0F6E0138212820F
:1027D0001186128680E183871086178215868BE426
:1027E00091E09183808389E591E095838483108AC9
:1027F0001786128A118A81E0838B148A858B168A48
:102800008FEE94E0909307068093060680E090E8B0
:10281000909305068093040646983E9A47983F9AFF
:1028200008958F929F92AF92BF92CF92DF92EF92D4
:10283000FF92CF93DF93EC01688179818A819B813C
:10284000611571058105910521F464E279ED8BE54F
:1028500097E02DE133EF41E050E00E9483144901FD
:102860005A019B01AC01A7EAB1E40E94A2146B01DA
:102870007C01ACEEB4EFA50194010E94B014DC0120
:10288000CB018C0D9D1DAE1DBF1DB7FF03C0019771
:10289000A109B04888839983AA83BB83BC01CD0179
:1028A0009F77DF91CF91FF90EF90DF90CF90BF9017
:1028B000AF909F908F9008950E941114089582E127
:1028C00091E00E9411140895609312017093130116
:1028D00080931401909315010895F999FECF92BD4C
:1028E00081BDF89A992780B50895262FF999FECFD2
:1028F0001FBA92BD81BD20BD0FB6F894FA9AF99A1D
:102900000FBE01960895052E97FB1EF400940E94B9
:102910009A1457FD07D00E94B51407FC03D04EF45B
:102920000C949A1450954095309521953F4F4F4FF8
:102930005F4F089590958095709561957F4F8F4F6B
:102940009F4F08950E94D714A59F900DB49F900D9E
:10295000A49F800D911D11240895B7FF0C94A2141B
:102960000E94A214821B930B0895A1E21A2EAA1BA7
:10297000BB1BFD010DC0AA1FBB1FEE1FFF1FA2172F
:10298000B307E407F50720F0A21BB30BE40BF50B2C
:10299000661F771F881F991F1A9469F760957095B5
:1029A000809590959B01AC01BD01CF010895A29F38
:1029B000B001B39FC001A39F700D811D1124911D13
:1029C000B29F700D811D1124911D0895EE0FFF1F00
:1029D0000590F491E02D099481E090E0F8940C9436
:0629E000F114F894FFCF92
:1029E600FFFF3F001F00FFFFFFFF00E100000000A8
:1029F6000000010000000A000A00280A0A002B0055
:102A0600280A320000000A1432002B000A1400C102
:102A16008081000000000000009A0472082B05B0B7
:102A260004BB042F054D0500000000630C6F04F481
:0C2A360004F3048B13FCFF0000CD130020
:00000001FF
