:100000000C94DA030C9402040C9402040C94020481
:100010000C9402040C9402040C9402040C94020448
:100020000C9402040C9402040C94880B0C948E0C17
:100030000C9402040C9402040C9402040C94020428
:100040000C9402040C9402040C9402040C94020418
:100050000C9402040C9402040C9402040C94B20458
:100060000C9402040C9402040C9402040C940204F8
:100070000C9402040C9402040C9402040C940204E8
:100080000C94AA050C9402040C9402040C9402042F
:100090000C9402040C9402040C9402040C940204C8
:1000A0000C9402040C9402040C940204F0F89C8E4C
:1000B0008783878E9CF8F00000FEFF030303030391
:1000C000070EFCF80000FEFF0303030303070EFC0A
:1000D000F80000FFFF00000000000000FFFF00002C
:1000E000FEFF8383838383C7EE7C380000F8FC0E19
:1000F00007030303070EFCF800003F7FE0C0808089
:10010000C0E07F3FFFFF01010101010101FFFF008E
:1001100000FFFF0C0C0C0C1C3E77E3C100007FFFBE
:10012000C0C0C0C0C0E0703F1F00001F3F70E0C0F3
:10013000C0C0E0703F1F00007FFFC1C1C1C1C1E36B
:10014000773E1C00001F3F70E0C0C0C0E0703F1F42
:10015000000000000001FFFF01000000D5F08D1439
:10016000A1C881CFD9F1AF2000101000000000001D
:10017000000000C0C020201010101010102020C05F
:10018000C0000000000000000000000000000000AF
:10019000000000010102020404040404040202013C
:1001A00001000000000000000000000000C0C0309E
:1001B00030080804040404020202020202040404D7
:1001C0000408083030C0C000000000000001010633
:1001D00006080810101010202020202020101010D9
:1001E0001008080606010100000000E0E0181804ED
:1001F00004020202020101010101010101010102E7
:1002000002020204041818E0E0000003030C0C10C2
:1002100010202020204040404040404040404020AE
:1002200020202010100C0C0303000008081B1104F0
:10023000111B000000010204081020408000000093
:1002400000003E5B4F5B3E3E6B4F6B3E1C3E7C3E78
:100250001C183C7E3C181C577D571C1C5E7F5E1C86
:1002600000183C1800FFE7C3E7FF0018241800FF40
:10027000E7DBE7FF30483A060E2629792926407F3A
:10028000050507407F05253F5A3CE73C5A7F3E1C49
:100290001C08081C1C3E7F14227F22145F5F005F35
:1002A0005F06097F017F006689956A606060606013
:1002B00094A2FFA29408047E040810207E20100857
:1002C000082A1C08081C2A08081E101010100C1EF2
:1002D0000C1E0C30383E3830060E3E0E0600000074
:1002E000000000005F00000007000700147F147F7B
:1002F00014242A7F2A122313086462364956205098
:100300000008070300001C2241000041221C002AB3
:100310001C7F1C2A08083E0808008070300008086E
:10032000080808000060600020100804023E5149DF
:10033000453E00427F400072494949462141494DAE
:10034000331814127F1027454545393C4A49493135
:1003500041211109073649494936464949291E00B4
:10036000001400000040340000000814224114145E
:10037000141414004122140802015909063E415D7B
:10038000594E7C1211127C7F494949363E41414108
:10039000227F4141413E7F494949417F0909090185
:1003A0003E414151737F0808087F00417F41002092
:1003B00040413F017F081422417F404040407F027E
:1003C0001C027F7F0408107F3E4141413E7F0909A6
:1003D00009063E4151215E7F0919294626494949AE
:1003E0003203017F01033F4040403F1F2040201F58
:1003F0003F4038403F6314081463030478040361EA
:1004000059494D43007F41414102040810200041F9
:1004100041417F0402010204404040404000030784
:10042000080020545478407F2844443838444444D9
:1004300028384444287F385454541800087E090250
:1004400018A4A49C787F0804047800447D40002010
:1004500040403D007F1028440000417F40007C0464
:100460007804787C080404783844444438FC182420
:10047000241818242418FC7C0804040848545454F4
:100480002404043F44243C4040207C1C2040201C89
:100490003C4030403C44281028444C9090907C4490
:1004A00064544C44000836410000007700000041CD
:1004B00036080002010204023C2623263C1EA1A1AC
:1004C00061123A4040207A38545455592155557993
:1004D0004121545478412155547840205455794055
:1004E0000C1E5272123955555559395454545939B4
:1004F000555454580000457C410002457D4200019E
:10050000457C40F0292429F0F0282528F07C54551A
:1005100045002054547C547C0A097F49324949499A
:10052000323248484832324A4848303A4141217ACA
:100530003A42402078009DA0A07D39444444393D92
:100540004040403D3C24FF2424487E4943662B2FF5
:10055000FC2F2BFF0929F620C0887E090320545464
:1005600079410000447D413048484A3238404022B9
:100570007A007A0A0A727D0D19317D2629292F28E1
:10058000262929292630484D40203808080808081F
:10059000080808382F10C8ACBA2F102834FA000009
:1005A0007B000008142A142222142A140895002221
:1005B0000095AA005500AAAA55AA55AA000000FF56
:1005C00000101010FF00141414FF001010FF00FFA3
:1005D0001010F010F0141414FC001414F700FF00B5
:1005E00000FF00FF1414F404FC141417101F101063
:1005F0001F101F1414141F00101010F00000000032
:100600001F101010101F10101010F010000000FF2D
:10061000101010101010101010FF10000000FF1428
:100620000000FF00FF00001F10170000FC04F4147E
:10063000141710171414F404F40000FF00F7141436
:100640001414141414F700F7141414171410101FB2
:10065000101F141414F4141010F010F000001F10E8
:100660001F0000001F14000000FC140000F010F038
:100670001010FF10FF141414FF141010101F0000AE
:100680000000F010FFFFFFFFFFF0F0F0F0F0FFFFC1
:10069000FF0000000000FFFF0F0F0F0F0F38444452
:1006A00038447C2A2A3E147E02020606027E027E1E
:1006B0000263554941633844443C04407E201E2077
:1006C00006027E020299A5E7A5991C2A492A1C4C1C
:1006D0007201724C304A4D4D303048784830BC621F
:1006E0005A463D3E494949007E0101017E2A2A2A97
:1006F0002A2A44445F444440514A444040444A51B9
:10070000400000FF0103E080FF000008086B6B0859
:100710003612362436060F090F060000181800009E
:10072000001010003040FF0101001F01011E0019E0
:100730001D1712003C3C3C3C0000000000080B0070
:100740000202020100090400000102020000052467
:1007500000100105240101010424020605240600FD
:10076000010705810310004009040100020A00008E
:100770000007050202400000070583024000000454
:1007800003090412010002EF0201404123368000F8
:10079000010102030141726475696E6F204C4C4384
:1007A0000041726475696E6F204C656F6E61726492
:1007B0006F00D21411241FBECFEFDAE0DEBFCDBF31
:1007C00011E0A0E0B1E0E4E6FCE202C005900D9289
:1007D000A836B107D9F726E0A8E6B1E001C01D921E
:1007E000A634B207E1F713E0CAEDD3E004C02197C5
:1007F000FE010E942516C93DD107C9F70E94BE0E11
:100800000C9430160C940000CF92DF92EF92FF927E
:100810000F931F93CF93DF936C017A018B01C0E09C
:10082000D0E0CE15DF0589F0D8016D918D01D6019C
:10083000ED91FC910190F081E02DC6010995892B85
:1008400011F47E0102C02196ECCFC701DF91CF9158
:100850001F910F91FF90EF90DF90CF9008958091BE
:100860007101E0916F01F0917001882349F0CF018F
:1008700002969093700180936F01859194910895F1
:10088000CF0102969093700180936F0180819181D6
:1008900008958091680108950895089580E090E09A
:1008A00008950E942B163FB7F8948091B50190915E
:1008B000B601A091B701B091B80126B5A89B05C0BB
:1008C0002F3F19F00196A11DB11D3FBFBA2FA92FCF
:1008D000982F8827820F911DA11DB11DBC01CD014C
:1008E00042E0660F771F881F991F4A95D1F7089538
:1008F0008F929F92AF92BF92CF92DF92EF92FF9230
:100900006B017C010E9453044B015C01C114D104B2
:10091000E104F104F1F00E945304DC01CB018819D9
:100920009909AA09BB09883E9340A105B10570F356
:1009300021E0C21AD108E108F10888EE880E83E0B0
:10094000981EA11CB11CC114D104E104F10419F7D3
:10095000DDCFFF90EF90DF90CF90BF90AF909F9052
:100960008F9008951F920F920FB60F9211242F931C
:100970003F938F939F93AF93BF9380916901909121
:100980006A01A0916B01B0916C013091B40123E038
:10099000230F2D3720F40196A11DB11D05C026E8B7
:1009A000230F0296A11DB11D2093B401809369010C
:1009B00090936A01A0936B01B0936C018091B50193
:1009C0009091B601A091B701B091B8010196A11D17
:1009D000B11D8093B5019093B601A093B701B09378
:1009E000B801BF91AF919F918F913F912F910F903F
:1009F0000FBE0F901F901895CF92DF92EF92FF924B
:100A00000F931F93CF93DF930E942F04811520E84B
:100A1000920761F4809171008D7F80937100109234
:100A20009100469847981092AD018BC021E0209329
:100A3000AD01813020E8920751F480916D019091D1
:100A40006E019093700180936F010E942F0497FDB7
:100A500005C02091AC01222309F43FC02091AB01D5
:100A600021113BC021E02093AE01EC01DF772097FC
:100A700069F481E08093AF0146983FE9C32E3FE0DF
:100A8000D32EE12CF12CCAEFD0E014C08E0120E06F
:100A900030E060E472E48FE090E0A90198010E94E8
:100AA000C21569017A0181E0C81AD108E108F1088C
:100AB0001092AF01E091CA05F091CB050995811123
:100AC00003C081E08093AF018091AE018823B9F12A
:100AD0008091AF01811133C003C01092AE01C5CF28
:100AE00046992DC0479A0E942F04009771F09C01EF
:100AF000DE010E941616DC01CB0129E0B595A79511
:100B0000979587952A95D1F703C08FEF9FEFDC016A
:100B1000109290002AE020939100D0929900C09208
:100B200098008093B0019093B101A093B201B0936B
:100B3000B3018091710082608093710002C0479878
:100B4000D2CFDF91CF911F910F91FF90EF90DF9067
:100B5000CF9008951F920F920FB60F9211242F93EA
:100B60003F934F935F936F937F938F939F93AF9335
:100B7000BF93EF93FF938091B0019091B101A09149
:100B8000B201B091B301892B8A2B8B2B81F180911B
:100B9000AF0181110BC098B180E4892788B9809199
:100BA000AE01882319F088B1805888B98091B001CE
:100BB0009091B101A091B201B091B301181619063C
:100BC0001A061B06B4F48091B0019091B101A09176
:100BD000B201B091B3010197A109B1098093B001AD
:100BE0009093B101A093B201B093B30102C00E94EF
:100BF000FC04FF91EF91BF91AF919F918F917F91F5
:100C00006F915F914F913F912F910F900FBE0F9079
:100C10001F9018954F925F927F928F929F92AF9202
:100C2000BF92CF92DF92EF92FF920F931F93CF93D9
:100C3000DF9300D000D0CDB7DEB729011C2DA02E48
:100C4000B12C9C012A0D3B1D121613060CF0B3C1EA
:100C5000803891050CF0AFC1FB01EE0DF11D1E16A1
:100C60001F060CF0A8C1603471050CF0A4C1411539
:100C7000510509F4A0C1E62FE770FE2EFB0177FDB8
:100C80003796A3E0F595E795AA95E1F7AE2F77FFA4
:100C900004C0FF2011F0AFEFAE0F97FF05C0EE27A5
:100CA000FF27E81BF90B02C0E0E0F0E02038310537
:100CB00024F020E8722E781A01C0702E7E1A6A2F56
:100CC0000A2E000C770BAF3F1CF4D62ED09401C037
:100CD000D12C21E03E2D377009F420E0E694E69413
:100CE000E694E20E6E0D711D693071051CF028E06E
:100CF000E22EEA1AED183D2D3A0FDC0120E832030E
:100D0000A00DB11D1124AE0FBF1FD09EE00DF11D2F
:100D100011244E0F5F1F81E090E04C010F2C02C0A8
:100D2000880C991C0A94E2F7133009F403C1A0F46B
:100D3000113009F4B5C0123009F03DC18FEF889D24
:100D4000B001899D700D1124609570957C836B8333
:100D50005C802E2D230F2BC01A3F31F01B3F09F072
:100D60002AC12E2D230F88C02E2D230F51C0FA012A
:100D7000E00FF11FE491E89D6001E99DD00C112482
:100D8000DA82C98237FD07C0FC01E080EE2DE62340
:100D9000CE2AFC01C082F11013C00F5F1F4F0196D5
:100DA000071528F33F5F4A0D5B1DA058BF4F321750
:100DB00009F401C1CD0184549E4F00E010E0F0CF52
:100DC00037305CF7FC01E058FF4FD080D520CA8057
:100DD000DC28D082E2CFFA01E60FF71FE491E89D0C
:100DE0008001E99D100D11241A83098337FD04C089
:100DF000FC011081012B0083F11013C06F5F7F4F46
:100E00000196671540F33F5F4A0D5B1DA058BF4F29
:100E1000321709F4D0C0CD0184549E4F60E070E0D9
:100E2000F0CF37305CF78C0100581F4FF801E0809D
:100E3000EA81EE2AF801E082E1CFFA01E00FF11F2A
:100E4000E491E89DC001E99D900D11249A83898366
:100E500037FD05C08095FB01908189238083F110C7
:100E600014C00F5F1F4F6F5F7F4F071530F33F5F59
:100E70004A0D5B1DA058BF4F321709F49CC0BD013D
:100E800064547E4F00E010E0F0CF373054F7FB01A0
:100E9000E058FF4F8A818095908189238083E1CF3C
:100EA000C2018E0F9F1F2E2D230F321709F483C00E
:100EB000BD0164547E4F6B0100E010E0071590F512
:100EC000FC01E00FF11FE491E89DB001E99D700D78
:100ED0001124609570957C836B83FA01E00FF11FFC
:100EE000E491E89D2001E99D500C11245A82498229
:100EF00037FD05C0F60170816723462A4082FF2036
:100F000059F037304CF4F601E058FF4F70816C8196
:100F100067237A81672B60830F5F1F4FFFEFCF1A24
:100F2000DF0ACCCF3F5F4A0D5B1D8A0D9B1DA05889
:100F3000BF4FBBCFC72CD12CE40FF51FA454BE4F1D
:100F400060E870E06C197D09AC18BD088501000FE0
:100F5000111F572D2E2DCF93DF93ED01EF96EF96B6
:100F60002296A590C590FF2059F0A89C5001C89CDE
:100F7000600137302CF4E880D094ED20EB28E99222
:100F800033233AF0EC90C094EC20EA28ED920C94D4
:100F9000CA0711965A9529F72A9551F0572D33957E
:100FA0001124E00FF11DA60FB11DC60FD11DD9CF21
:100FB000DF91CF9111240F900F900F900F90DF9140
:100FC000CF911F910F91FF90EF90DF90CF90BF9046
:100FD000AF909F908F907F905F904F9008952D9A43
:100FE0000895BC0180E090E00C9478048FB1809566
:100FF000807F669B88601C9B846008950C94AC1570
:1010000060387105D0F440345105B8F4E5E3F2E0FE
:1010100080E1849FD001A0781124A60F4770E40FCF
:10102000F11D8491A454BE4F222319F06C91862B9C
:1010300003C080956C9186238C9308952F923F92E4
:101040004F925F926F927F928F929F92AF92BF92D8
:10105000CF92DF92EF92FF920F931F93CF93DF9384
:10106000CDB7DEB729970FB6F894DEBF0FBECDBF60
:10107000FC016A3069F425898189928938E0239FCF
:10108000800D911D1124928B818B108A1786AAC026
:101090006D3009F4A7C099878887F588348823883C
:1010A000618872880785108900381105C4F0A88509
:1010B000B98555962C915597422F50E01F968D91EA
:1010C0009C915097B6E02B9F800D911D1124E885CF
:1010D000F985908B8787268921116EC083C0F0E443
:1010E0006F16710424F7C80125E0F29E800D911D52
:1010F000112418161906DCF68F2D90E09C838B8343
:10110000C301A8E0FA9E800D911D1124181619063E
:1011100074F6B5E06B9FB0011124FB01E35CFD4F59
:10112000FA83E98330E08885998504969E838D83D0
:10113000E981FA81E490353009F4E12C430188E03B
:10114000482EE0FC02C0532C01C0522C51100BC0A1
:10115000321009C0E6944A948B819C81880E991EB6
:101160004110EFCF1BC068018C2D801B8F1590F7AD
:1011700054018A2D88198F1568F4252DA501B60113
:101180008D819E813F830E9400089FEFA91AB90AB2
:101190003F81EFCFAFEFCA1ADA0AE6CF3F5FEB81AC
:1011A000FC810E0F1F1F89819A8101969A83898382
:1011B000363009F0BDCF7BCF6AEF64039001659FA5
:1011C000300D112420583F4F281739075CF4A885AB
:1011D000B985ED91FC9111970190F081E02D6AE0C5
:1011E000CD01099581E090E029960FB6F894DEBF15
:1011F0000FBECDBFDF91CF911F910F91FF90EF9068
:10120000DF90CF90BF90AF909F908F907F906F9026
:101210005F904F903F902F900895CF92DF92FF9272
:101220000F931F93CF93DF93DB019C01E2E7F1E083
:1012300080E090E0C080D180628173818C010E5883
:101240001E4FE801FC805D81AC15BD0574F0E60120
:10125000CF0DD11DAC17BD0744F4261737072CF06E
:10126000650F711D2617370724F1369606968831CB
:10127000910501F7442321F1EAE8F1E080E090E0F4
:101280006081718142815381EC01C657DE4F1C8120
:10129000CD81A617B7077CF0610F711DA617B707A0
:1012A00054F4241735073CF04C0F511D2417350713
:1012B00014F481E006C0369606968C30910501F74D
:1012C00080E0DF91CF911F910F91FF90DF90CF9041
:1012D0000895CF93DF93EC010E949E1524E630E041
:1012E00040E050E00E94C21521E06534710581059F
:1012F00091050CF020E01C161D061CF4222329F099
:101300000FC0CD2B11F021110EC00E949E1523E0BD
:1013100030E040E050E00E94C215CB01019705C0CB
:1013200081E090E002C08FEF9FEFDF91CF910895B1
:101330009C01240F311D1216130674F58038910597
:101340005CF5FC0197FF02C0E0E0F0E021383105D8
:1013500014F020E830E02E1BAB014770552781E0E8
:1013600001C0880F4A95EAF777FF02C0695F7F4F97
:1013700093E0759567959A95E1F77695762F6627B0
:1013800077956795E60FF71FE454FE4F215020F044
:101390009081982B9193FACF0895FC018091BB0125
:1013A000811103C08FEF9FEF08959FB7F89482E0FB
:1013B0008093E9002091F20030E01216130614F435
:1013C00021E030E02115310559F0289884E680931A
:1013D000BA018091F10080838091F200882319F096
:1013E0009FBFC90108958BE68093E800F9CF2FB71E
:1013F000F89483E08093E9009091E800892F80724F
:1014000095FF04C09091F20080E4891B2FBF0895DE
:10141000CF93DF931F92CDB7DEB76983DC01ED91E7
:10142000FC910280F381E02D41E050E0BE016F5F4E
:101430007F4F09950F90DF91CF91089583E08093BE
:10144000E9008091F200882319F08AE38093E80094
:1014500008950E94F70990E00895CF93DF931F92BB
:10146000CDB7DEB7FC018485958597FD05C02FEFCC
:101470003FEF358724870BC0CE0101960E94CD092E
:10148000019719F4898190E002C08FEF9FEF0F90D0
:10149000DF91CF9108950F931F93CF93DF931F9206
:1014A000CDB7DEB78C01FC018485958597FF0EC012
:1014B000CE0101960E94CD09019719F4298130E0EF
:1014C00002C02FEF3FEFF80135872487F8018485AC
:1014D00095850F90DF91CF911F910F910895FC0199
:1014E0008485958597FD0BC09FB7F89482E0809323
:1014F000E9008091F2009FBF90E0019608959FB7A8
:10150000F89482E08093E9008091F2009FBF90E020
:1015100008958F929F92AF92BF92CF92DF92EF92F7
:10152000FF920F931F93CF93DF935C016B017A01BE
:1015300080910D01882309F45BC08091BB01882351
:1015400009F456C08091B90180FF05C08091E00088
:1015500082608093E000E70110E00AEF83E0882ECC
:101560009AE3992E2097D9F10E94F70981110AC0B8
:10157000015009F43DC061E070E080E090E00E941D
:101580007804F0CF282F30E0C217D3070CF48C2F4B
:101590004FB7F8948092E9009091E80095FF1DC044
:1015A000282F30E0C21BD30BF601982F915020F06A
:1015B00081918093F100FACFC20ED31E112319F04E
:1015C0009092E80009C08091E80085FD06C09092E5
:1015D000E80011E0209709F010E04FBFC3CF1111D0
:1015E000C3CF5D9884E68093E3051E141F0444F086
:1015F00081E090E0F5019383828380E090E001C078
:10160000C701DF91CF911F910F91FF90EF90DF9075
:10161000CF90BF90AF909F908F900895ECEBF1E04A
:10162000A0E0B8E000800EBC8111012C1197A0FD54
:10163000FDCF0192B9F70DB40895EF92FF920F9389
:101640001F93CF93DF937C018B01040F111DEB01DE
:1016500077FF0EC0C0E0D0E00BC0C217D3077CF408
:1016600021E0AE01B70180ED95E00E9400082196CF
:101670009801013411058CF320E430E0EECFDF91C6
:10168000CF911F910F91FF90EF900895EF92FF92ED
:101690000F931F93CF93DF93EC018B01E42EF22E77
:1016A0006034710510F40E949809B8016F0D711D26
:1016B000615071096034710520F44E2DCE010E94F5
:1016C00098094F2DB801CE010E941D0BCE018E0D41
:1016D000911D4F2DB8010197DF91CF911F910F916F
:1016E000FF90EF900C941D0B8091E80581110DC0C7
:1016F00082E08093E40584E08093E5051092E7059D
:101700001092E60581E08093E80584EE95E0089567
:101710001F920F920FB60F9211248F939F93809177
:10172000E1009091E100937F9093E10083FF0FC06F
:101730001092E90091E09093EB001092EC0092E39C
:101740009093ED001092BB0198E09093F00082FF1F
:1017500020C093E09093E9009091F200992319F052
:101760009AE39093E8009091E305992339F09091E2
:10177000E30591509093E305992389F19091BA0183
:10178000992339F09091BA0191509093BA0199231D
:1017900041F184FF10C08091E2008E7E81608093D1
:1017A000E2008091E1008F7E8093E1008091B90199
:1017B0008E7E806111C080FF16C08091E2008E7E17
:1017C00080618093E2008091E1008E7E8093E10051
:1017D0008091B9018E7E81608093B90104C05D9AC9
:1017E000CDCF289AD6CF9F918F910F900FBE0F909B
:1017F0001F9018954091440650914506209142064D
:101800003091430642175307B4F49091E800957065
:10181000E1F39091E80092FD19C08093F10080916E
:1018200044069091450601968F739927892B19F4E8
:101830008EEF8093E80080914406909145060196D2
:10184000909345068093440681E0089580E00895D2
:10185000DF92EF92FF920F931F93CF93DF93D82ED7
:101860008A017B01E40EF51EEB01CE15DF0571F058
:10187000D7FE03C0FE01849101C088810E94FA0B4B
:1018800021968111F2CF8FEF9FEF01C0C801DF9148
:10189000CF911F910F91FF90EF90DF9008956150CD
:1018A00030F02091F100FC0120830196F8CF2898B8
:1018B00084E68093BA0108950F931F93CF93DF932B
:1018C0001F92CDB7DEB782E0898342E450E06DE33A
:1018D00077E080E80E94280C0E94740BDC011296CD
:1018E0000D911C9113970115110569F0D801ED9127
:1018F000FC910280F381E02DBE016F5F7F4FC80134
:10190000099597FF07C089810F90DF91CF911F91B3
:101910000F910895F80100851185E5CF1F920F9270
:101920000FB60F921124CF92DF92EF92FF920F9396
:101930001F932F933F934F935F936F937F938F9357
:101940009F93AF93BF93EF93FF93CF93DF93CDB765
:10195000DEB76C97DEBFCDBF1092E9008091E80042
:1019600083FFEDC168E0CE0145960E944F0C82EFE7
:101970008093E8008D8987FF05C09091E80090FF73
:10198000FCCF03C09EEF9093E800982F907609F06B
:10199000C6C09E892F89188D91110CC0803829F4FA
:1019A000809141068093F10002C01092F1001092E4
:1019B000F10048C1422F50E0512B913051F4811178
:1019C00041C14130510509F03DC1809141068D7FF3
:1019D0000BC0933061F4811135C14130510509F0DC
:1019E00031C1809141068260809341062BC19530C0
:1019F00041F48091E80080FFFCCF20682093E30051
:101A000021C1963009F05FC0EB8CFC8C1092E9008C
:101A10001092450610924406123091F5109243063A
:101A2000109242060E945C0C99E0BE016F5F7F4FEE
:101A3000DB01E92F1D92EA95E9F799831A8391E07A
:101A40009E8390EA98879AEF998720914406309177
:101A50004506275F3F4F3C832B838D831092E9001F
:101A60001092450610924406F0924306E092420618
:101A700049E050E080E00E94280C0E945C0CE2C02B
:101A8000F0924306E09242060E94740BDC0112962B
:101A9000ED90FC901397E114F10409F4C0C0D70154
:101AA000ED91FC910480F581E02DBE016B5E7F4FCE
:101AB000C7010995009719F00CF0C4C0C7C0F70121
:101AC000E084F184E8CF973009F4C0C0983021F465
:101AD00081E08093F100B6C0993009F0B3C0837003
:101AE00009F0B4C0E1E6F1E081E021E036E3908165
:101AF000992361F08093E9002093EB0091919093FA
:101B0000EC003093ED008F5F873089F78EE780938C
:101B1000EA001092EA008F898093BB0193C08B8DFD
:101B20009C8D1092E9001092450610924406909305
:101B3000430680934206898D811156C08E899D8906
:101B4000913A59F4813209F081C047E050E066E0F3
:101B500071E080E00E94280C75C0913209F076C0D7
:101B6000833289F4888D90E0982F88272F89822BE3
:101B7000A0E0B0E080930E0190930F01A0931001BC
:101B8000B09311015FC0803269F48091E80082FF58
:101B9000FCCF67E086E091E00E944F0C8BEF8093D2
:101BA000E80006C0823209F04DC08F8980930D0194
:101BB00080914006882319F0EEEFFAE002C0E0E0E1
:101BC000F8E08091060190910701A0910801B09181
:101BD0000901803B9440A105B10509F07BC08091CB
:101BE0000D0180FF93C076C00E94740BDC01129639
:101BF0000D911C9113970115110541F1D801ED913B
:101C0000FC910190F081E02DBE016B5E7F4FC80119
:101C10000995811117C0F80100851185ECCF1130AD
:101C200009F44EC0133091F48F89882309F445C01C
:101C3000823081F440E860E181EA97E00E94131568
:101C4000882321F08EEF8093E80079C081E28093B1
:101C5000EB0075C0813029F440E86BE085E997E03E
:101C6000EDCF833099F70E94740BDC011296ED9052
:101C7000FC9013978E010F5F1F4F6801E114F10470
:101C800079F0D701ED91FC910680F781E02DB80144
:101C9000C7010995080F111DF701E084F184EECF0B
:101CA000D8011C92F60101900020E9F73197BF019D
:101CB0006C197D0940E0C601C1CF6FE777E002C033
:101CC00063E877E06115710509F2FB01449150E08A
:101CD00080E840CF0FB6F894A895809160008861A5
:101CE00080936000109260000FBEA895EE3F2AE03E
:101CF000F20739F08091FE0A9091FF0A9183808368
:101D0000A1CF1092FF0A1092FE0A9CCFEE3F8AE00C
:101D1000F80731F0808191819093FF0A8093FE0A49
:101D200087E797E7918380839BE088E10FB6F8947B
:101D3000A895809360000FBE9093600083CF6C964F
:101D40000FB6F894DEBF0FBECDBFDF91CF91FF91EC
:101D5000EF91BF91AF919F918F917F916F915F9123
:101D60004F913F912F911F910F91FF90EF90DF9036
:101D7000CF900F900FBE0F901F901895CF93DF93C9
:101D8000CDB7DEB761970FB6F894DEBF0FBECDBFFB
:101D9000789484B5826084BD84B5816084BD85B546
:101DA000826085BD85B5816085BD80916E00816052
:101DB00080936E00109281008091810082608093F8
:101DC00081008091810081608093810080918000FA
:101DD0008160809380008091910082608093910067
:101DE000809191008160809391008091900081604A
:101DF000809390008091C10084608093C1008091A5
:101E0000C10082608093C1008091C1008160809395
:101E1000C1008091C30081608093C3008091C000A5
:101E200082608093C0008091C20081608093C20074
:101E300080917A00846080937A0080917A00826039
:101E400080937A0080917A00816080937A008091FB
:101E50007A00806880937A001092BB01109241064C
:101E60001092B9018091D70081608093D70080EAF9
:101E70008093D80089B5806189BD89B5826089BDAC
:101E800009B400FEFDCF61E070E080E090E00E94C8
:101E900078048091D8008F7C80618093D8008091F5
:101EA000E000807F8093E0008091E1008E7E80934F
:101EB000E1008DE08093E200559A209AEEEFFFE773
:101EC000859194918B3F9C4D19F481E0809340065D
:101ED00081EC80937C0085B1806F85B984B1877E69
:101EE00084B984B1876E84B95E9A5F988AB1806D37
:101EF0008AB9769A6E9881B3806F81BB899880B3D6
:101F00008D7080BB80E58CBD81E08DBD85E090E06B
:101F10000E94F1075F9A85E090E00E94F1075E98C9
:101F20005C98ECE5F1E08DE08E0F94919EBD000091
:101F30000DB407FEFDCF31968E13F7CF5C9A81E882
:101F4000809364008091650081608093650080E0EB
:101F50000E940E0B0E94F60787FF24C05C9885EA5A
:101F60008EBD00000DB407FEFDCF5C9A2E982F9811
:101F70002D988091640080628093640081E083BF2B
:101F8000889513BEFCCF2D980E94F607847884387C
:101F900071F00E94F6078471843131F188EC90E091
:101FA0000E94F1070E94F60782FDEDCF3AC00E9421
:101FB000EF0788EC90E00E94F1072F9882E090E014
:101FC0000E94AC158F3F29F06FEF82E090E00E94F5
:101FD000B41584EF91E00E94F1072F9A0E94F60752
:101FE00084788438D9F3D5CF0E94EF0788EC90E04D
:101FF0000E94F1072E9882E090E00E94AC158823A1
:1020000029F060E082E090E00E94B41584EF91E056
:102010000E94F1072E9A0E94F60784718431D9F349
:10202000BDCF0E94EF0782E090E00E94AC158823AC
:1020300031F03E9A3F9A81E08093680104C010928B
:1020400068013E983F9881E090E00E94FE0782FB85
:10205000FF24F0F881FFA2C0F1102E9820EF3FEF8F
:102060003F872E8768E0862E912C0E94F60786FF18
:1020700004C02E9A2F9A2D9A91C0FF2039F04E85D8
:102080005F854430510511F42E9A2F9881E00E940B
:102090000E0B2E853F8537FF03C031952195310901
:1020A000277033278E859F8597FD079653E095957A
:1020B00087955A95E1F70E851F8517FF05C0019793
:1020C000A401421B530B9A018C011695102F002777
:1020D0001795079560E070E03401621A730AD80121
:1020E000A058BF4F5D018F3FBFEF9B0744F401969F
:1020F000685A7F4F8501603B710589F72AC0D80176
:10210000A05BBD4F40E050E08F3FEFEF9E0709F42A
:1021100082C3FA01E60FF71FE455FF4FE4906D010B
:10212000CA18DB08C00ED11EEE2DF0E0022E02C050
:10213000EE0FFF1F0A94E2F7F98BE88BF601E080BF
:10214000E889F989EE29F98BE88BE888F601E082C5
:1021500062C380E00E940E0B8FE090E00E94F107C6
:102160000E851F850F5F1F4F1F870E8709311105D1
:1021700009F07BCFFF2011F02F9A2D9880E991E094
:102180000E94F1070E94EF07E091D005F091D10580
:102190000190F081E02D80ED95E0099582E390E0DB
:1021A0000E94F1070E94F6078111F8CF8091640028
:1021B0008E7F8093640080917A00806480937A009F
:1021C00080917A0086FDFCCF009178001091790013
:1021D0000E94530420E030E0980111270027600F8F
:1021E000711F821F931F611571058105910511F003
:1021F0000E94A3158091640081608093640081E255
:102200008093D70586E0E6E1F1E0A2E7B1E0019036
:102210000D928A95E1F786E0ECE1F1E0A8E7B1E004
:1022200001900D928A95E1F786E0E2E2F1E0AEE7F7
:10223000B1E001900D928A95E1F786E0E8E2F1E0E5
:10224000A4E8B1E001900D928A95E1F786E0EEE214
:10225000F1E0AAE8B1E001900D928A95E1F786E0FD
:10226000E4E3F1E0A0E9B1E001900D928A95E1F795
:102270008EE190E0909397018093960125E030E005
:10228000309399012093980190939B0180939A0138
:102290008AE390E090939D0180939C011092A601A7
:1022A0001092A7018FB7F8944091690150916A018B
:1022B00060916B0170916C018FBF8091D805942F54
:1022C000981B8091D905882329F09093DA05109204
:1022D000D90599C22091D705921748F49F5F9217AC
:1022E00008F091C281E083BF889513BE8CC291E053
:1022F0009093D9054093D8052091D3053091D4050A
:102300002F5F3F4F3093D4052093D305ECEBF1E0E2
:1023100081118FEF002481938193819381930394A2
:10232000D1F71092DE051092DD051092DC051092B7
:10233000DB058091D5058093D6050E94F607809332
:10234000D5050E94F60787FF16C080910401909181
:102350000501019790930501809304018091AA01E2
:10236000882349F0E091A801F091A901828193812D
:102370000197938382830E94F60784FF16C08091A1
:102380000401909105010196909305018093040149
:102390008091AA01882349F0E091A801F091A90158
:1023A000828193810196938382830E94F60785FF41
:1023B00009C080910201909103010197909303015C
:1023C000809302010E94F60786FF09C080910201F6
:1023D00090910301019690930301809302018091F3
:1023E000D60583FD04C08091D50583FD2FC20E94D0
:1023F000F60782FF1092AA018091D60582FD37C0B0
:102400008091D50582FF33C0609102017091030174
:10241000C0900401D0900501EAE8F1E080E090E08E
:102420004081518122813381DC01A657BE4F149631
:102430001C91149715960C91641775070CF461C2E2
:10244000410F511D641775070CF05BC2C216D3060D
:102450000CF457C2200F311DC216D3060CF051C226
:1024600081E08093AA01F093A901E093A801F6EA24
:10247000EF2EF1E0FF2EA6E9AA2EA1E0BA2EF70179
:1024800080818823D9F18091A2019091A301D50187
:102490002D913C91821B930B0E946909F5010081EB
:1024A0001181080F191F1801C280D380260141E055
:1024B000C201B1010E940D09811103C0D5010D9324
:1024C0001C938091A4019091A5018C199D090E94F3
:1024D0006909F5010190F081E02DFA87E987D501BE
:1024E00012960D911C911397080F191F1C870B87CB
:1024F00041E069857A858B859C8536C080E090E0D7
:102500000E946909D5010D911C911197080F191F9F
:102510001E830D831296ED91FC911397F887EF833C
:1025200041E06D817E818F8198850E940D09811126
:1025300003C0D5010D931C9380E090E00E946909CF
:10254000F5010190F081E02DFA83E983D50112961F
:102550000D911C911397080F191F1C830B8341E0E9
:1025600069817A818B819C810E940D09811103C050
:10257000F50113830283D5016D917C9111978091B0
:10258000A2019091A30112964D915C911397681747
:10259000790749F48091A4019091A5014817590742
:1025A00011F4F70110826038710514F06FE770E0E4
:1025B00077FF02C060E070E0D5016D937C934034FA
:1025C000510514F04FE350E057FF02C040E050E0E7
:1025D000F5015383428300910201109103010038F9
:1025E000110514F00FE710E017FF02C000E010E043
:1025F0001093030100930201C0900401D0900501E3
:10260000F0E4CF16D1041CF0EFE3CE2ED12CD7FE90
:1026100002C0C12CD12CD0920501C092040121E04E
:1026200080ED95E00E9400082FEFE21AF20A34E0F4
:10263000A30EB11C4EE9A41641E0B40609F01FCF69
:1026400072E7E72E71E0F72EA12CB12CD70112967C
:102650006D907C901397F501EE58FE4F8481258193
:10266000ED91FC91FF87EE874F01880E911C8E85BE
:102670009F85881599057CF4422FB3018E859F852F
:102680002D870E941D0B4E855F854F5F5F4F5F87D3
:102690004E872D85ECCF96E0E90EF11CA6E0AA0E40
:1026A000B11CB8E1AB16B10489F66AE8A62E61E068
:1026B000B62E1F861E86F501E080F1808280938011
:1026C000EE85FF85E657FE4F74806580262D472DE9
:1026D000B401C7010E94460B2CEF260D4CEF470DAD
:1026E000B4016E5F7F4FC70102960E94460BF6E071
:1026F000AF0EB11C2E853F852A5F3F4F3F872E8747
:102700002C303105C1F66091020170910301809176
:1027100004019091050140E00E940D09B60162504C
:102720007109D8011297EBE2F2E0882339F00491A5
:10273000ECE2F2E0E4905BEFC52E06C00491ECE21F
:10274000F2E0E4904AEFC42E20E030E04DE252E0A7
:10275000CD010E940A06A0900001B0900101B7FCD3
:102760004FC060919E0170919F01675071098091E7
:10277000A0019091A1010797E9E6F1E00491EAE652
:10278000F1E0E490AA2031F1F501FF27EE0FFF1FE1
:10279000402F50E02E2D269526952695A22FB0E0AD
:1027A00021E030E01E2D177011F420E030E02A0FF8
:1027B0003B1F429FD001439FB00D529FB00D11248B
:1027C000EA9FA001EB9F500DFA9F500D112445592F
:1027D0005E4F02C04BE651E023E0C22E20E030E025
:1027E0000E940A06FFEFAF1ABF0A03E0A016B10469
:1027F0000CF48EC02FEF3FEF3093010120930001C6
:1028000080E00E940E0B80E090E0892B09F44ACD15
:102810000E94000047CD2115310581F0FA01E60F35
:10282000F71FE455FF4FE491F0E0062C02C0F59548
:10283000E7950A94E2F7EC90EE29EC934F5F5F4F37
:1028400011964835510509F05FCC51CC809171004B
:102850008D7F80937100109271018CEB95E09093C5
:10286000700180936F0190936E0180936D018EE5EE
:1028700091E09093BD058093BC0589E690E090932C
:10288000BF058093BE0589E591E09093C1058093D3
:10289000C0058EE190E09093C3058093C20580E06F
:1028A00090E89093C5058093C4050E94FC0481E0E4
:1028B0008093A6018093A70180910201909103016A
:1028C000A0910401B09105018093A2019093A3010E
:1028D000A093A401B093A5018091020190910301FE
:1028E0009093A1018093A001809104019091050132
:1028F00090939F0180939E0110920101109200011C
:1029000076CD369606968C30910509F4B0CD88CDFB
:10291000B0920101A092000173CF0F931F93CF9348
:10292000DF938C0181E090E00E94FE0780FF32C0BF
:102930008AE090E00E94FE079FEF980F9E3F50F5BF
:1029400022E330E0D80150963C932E931F9728E362
:1029500030E052963C932E935197CBE0D0E0D801D3
:10296000ED91FC910190F081E02D682FC80109954F
:10297000CE010E94FE072196C131D10581F780E08A
:102980000E940E0B88EE93E0DF91CF911F910F9183
:102990000C94F107DF91CF911F910F910895049747
:1029A0000C948D14E0EFF5E01382128288EE93E030
:1029B000A0E0B0E084839583A683B7838EE391E0A3
:1029C000918380838FEF9FEF95878487ECECF5E010
:1029D000138212821186128680E183871086178205
:1029E000158680E591E0918380838EE591E0958363
:1029F0008483108A1786128A118A81E0838B148A55
:102A0000858B168A89E494E09093CB058093CA0560
:102A100080E090E89093C9058093C80546983E9A57
:102A200047983F9A0895CF92DF92EF92FF920F93CB
:102A30001F93CF93DF931F92CDB7DEB7182F062FCA
:102A4000E42E862F880F8E5F99830E94FA0B83E015
:102A50000E94FA0BF12EC12E9981D92E8C2D8F193F
:102A6000801798F4F601E7FE02C0849101C08081CE
:102A70000E94FA0B182F80E00E94FA0B8123FFEFCF
:102A8000CF1ADF0A8111EACF01C081E00F90DF91F8
:102A9000CF911F910F91FF90EF90DF90CF9008950D
:102AA0008F929F92AF92BF92CF92DF92EF92FF925E
:102AB000CF93DF93EC01688179818A819B816115D5
:102AC00071058105910521F464E279ED8BE597E0CC
:102AD0002DE133EF41E050E00E94C21549015A0157
:102AE0009B01AC01A7EAB1E40E94E1156B017C01F6
:102AF000ACEEB4EFA50194010E94EF15DC01CB010F
:102B00008C0D9D1DAE1DBF1DB7FF03C00197A10910
:102B1000B04888839983AA83BB83BC01CD019F778A
:102B2000DF91CF91FF90EF90DF90CF90BF90AF906B
:102B30009F908F9008950E945015089582E191E032
:102B40000E945015089560931201709313018093B1
:102B50001401909315010895F999FECF92BD81BD9E
:102B6000F89A992780B50895262FF999FECF1FBAB4
:102B700092BD81BD20BD0FB6F894FA9AF99A0FBEA6
:102B800001960895052E97FB1EF400940E94D91516
:102B900057FD07D00E94F41507FC03D04EF40C94A7
:102BA000D91550954095309521953F4F4F4F5F4F28
:102BB000089590958095709561957F4F8F4F9F4FA9
:102BC00008950E941616A59F900DB49F900DA49F86
:102BD000800D911D11240895B7FF0C94E1150E94FA
:102BE000E115821B930B0895A1E21A2EAA1BBB1BB1
:102BF000FD010DC0AA1FBB1FEE1FFF1FA217B307C9
:102C0000E407F50720F0A21BB30BE40BF50B661FDE
:102C1000771F881F991F1A9469F7609570958095A2
:102C200090959B01AC01BD01CF010895A29FB00119
:102C3000B39FC001A39F700D811D1124911DB29FF0
:102C4000700D811D1124911D0895EE0FFF1F059039
:102C5000F491E02D099481E090E0F8940C94301602
:042C6000F894FFCF16
:102C6400FFFF3F001F0000E1000000000000FFFF25
:102C7400FFFF010000000A000A00280A0A002C00D5
:102C8400280A320000000A1432002C000A143C0006
:102C94000F000A2246000F000A2200000000080A62
:102CA400890A290A1E0A6F0A2D0A4B0A000000002D
:102CB4001E0804044E044D048D14FCFF0000CF14C0
:082CC40000C180810000000046
:00000001FF
